20200312C310117A000000820000004284298000000089970200000051840000000000000000000000000000000000000000000000000000000I30652086124   KALLPA TOURS                  ???30652086124   210000000000              1050162340002N
20200312C560117B000000150000000000000-000000000000-000000000000-000000000000-000000000000-000000000000-000000000000C              Proietti                      ???              210000000000              1050240000001Y
20200312C310120B000000420000027311272000000573536700000330466390000000000000000000000000000000000000000000000000000C50000002183   HOTEL BEDS USA INC            ???50000002183   210000000000              1050202320001N
20200312C310117B000005710000000019174000000000402600000000266800000000003480000000000000000000000000000000000000000C401850406     Cuthbert                      ???401850406     210000000000              1050180550001N
20200312C310117B000005720000000042645000000000895500000000593400000000007740000000000000000000000000000000000000000C0374741       Herrera                       ???0374741       210000000000              1050179520001N
20200312C310117B000005730000001322250000000027767300000015999230000000000000000000000000000000000000000000000000000C              Vaccaro                       ???              210000000000              1050199130001N
20200312C310117B000005740000000870750000000018285800000010536080000000000000000000000000000000000000000000000000000C30506944666   AVIANCA                       ???30506944666   210000000000              1050195540002N
20200312C310117B000005750000000870750000000018285800000010536080000000000000000000000000000000000000000000000000000C30506944666   AVIANCA                       ???30506944666   210000000000              1050190990002N
20200312C310117B000005760000000012397000000000260300000000150000000000000000000000000000000000000000000000000000000C              Ortiz-Velasquez               ???              210000000000              1050190260001N
20200312C310117B000005770000000171901000000003609900000002392000000000031200000000000000000000000000000000000000000CPAH470301     PBK Mosquera Gonzalez         ???PAH470301     210000000000              1050167790001N
20200312C310117B000005780000000870750000000018285800000010536080000000000000000000000000000000000000000000000000000C30506944666   AVIANCA                       ???30506944666   210000000000              1050190260002N
20200312C310117B000005790000001741501000000036571500000021072160000000000000000000000000000000000000000000000000000C30506944666   AVIANCA                       ???30506944666   210000000000              1050167790002N
20200312C310117B000005800000003208098000000067370100000038817990000000000000000000000000000000000000000000000000000C              Gastaldi                      ???              210000000000              1050156320004N
20200312C310117B000005810000000086281000000001811900000001200600000000015660000000000000000000000000000000000000000CPA0372538     Alvarez                       ???PA0372538     210000000000              1050181950001N
20200312C310117B000005820000000690992000000014510800000008361000000000000000000000000000000000000000000000000000000C325325324     Mazzarella                    ???325325324     210000000000              1050195040002N
20200312C310117B000005830000000058182000000001221800000000809600000000010560000000000000000000000000000000000000000CYC851509      De Oliveira                   ???YC851509      210000000000              1050181940001N
20200312C310117B000005840000000064793000000001360700000000901600000000011760000000000000000000000000000000000000000CPA0340365     Moreno                        ???PA0340365     210000000000              1050181930001N
20200312C310117B000005850000000000000000000000000000000000387000000000000000000000000000000000000000000000000000000C20AD92723     Sabatini                      ???20AD92723     210000000000              1050157020002N
20200312C310117B000005860000000069421000000001457900000002001000000000000000000000000000000000000000000000000000000CYB6022258     Forte                         ???YB6022258     210000000000              1050188350001N
20200312C310117B000005870000001741501000000036571500000021072160000000000000000000000000000000000000000000000000000C30506944666   AVIANCA                       ???30506944666   210000000000              1050191020002N
20200312C310117B000005880000001423399000000029891400000018579130000000019500000000000000000000000000000000000000000C              Barbieri                      ???              210000000000              1050155940001N
20200312C310117B000005890000000000000000000000000000000000774000000000000000000000000000000000000000000000000000000Cpa0568794     Estevill                      ???pa0568794     210000000000              1050156220001N
20200312C310117B000005900000000000000000000000000000000000000000000000000000000000000000000000000000000000000000000C              Proietti                      ???              210000000000              1050195090001Y
20200312C310117B000005910000000238017000000004998300000002880000000000000000000000000000000000000000000000000000000CPA231544      Proietti                      ???PA231544      210000000000              1050199440001N
20200312C310117B000005920000000366470000000007695900000004434290000000000000000000000000000000000000000000000000000C              Proietti                      ???              210000000000              1050195090001N
20200312C310117B000005930000000000000000000000000000000000193500000000000000000000000000000000000000000000000000000CF10595254     Bahamondespassi               ???F10595254     210000000000              1050156060002N
20200312C310117B000005940000000000000000000000000000000000967500000000000000000000000000000000000000000000000000000Cad738140      Terzibachi                    ???ad738140      210000000000              1050155560001N
20200312C310117B000005950000001225500000000025735500000014828550000000000000000000000000000000000000000000000000000C1             Marriott Bonvoy  Reimbursement???1             210000000000              1050155560002N
20200312C310117B000005960000000611041000000012831900000007393600000000000000000000000000000000000000000000000000000C              Braillard Poccard             ???              210000000000              1050195490001N
20200312C310117B000005970000000008264000000000173600000000100000000000000000000000000000000000000000000000000000000C12345678      Consumidor Final              ???12345678      210000000000              1050202780001N
20200312C310117B000005980000000254545000000005345500000003080000000000000000000000000000000000000000000000000000000C59462555      Buqueras                      ???59462555      210000000000              1050156100002N
20200312C310117B000005990000000051240000000001076000000000620000000000000000000000000000000000000000000000000000000C655545        Williams                      ???655545        210000000000              1050157090001N
20200312C310117B000006000000000000000000000000000000000000387000000000000000000000000000000000000000000000000000000C528218923     Kellams                       ???528218923     210000000000              1050156520001N
20200312C310117B000006010000000490200000000010294200000005931420000000000000000000000000000000000000000000000000000C1             Marriott Bonvoy  Reimbursement???1             210000000000              1050156520002N
20200312C310117B000006020000000000000000000000000000000000193500000000000000000000000000000000000000000000000000000Cfv344483      Mendes Espanha                ???fv344483      210000000000              1050189420001N
20200312C310117B000006030000000080992000000001700800000001046000000000006600000000000000000000000000000000000000000C456454        Palau                         ???456454        210000000000              1050156780001N
20200312C310117B000006040000000000000000000000000000000000580500000000000000000000000000000000000000000000000000000C524712856     Martinez                      ???524712856     210000000000              1050156680001N
20200312C310117B000006050000000735300000000015441300000008897130000000000000000000000000000000000000000000000000000C1             Marriott Bonvoy  Reimbursement???1             210000000000              1050156680002N
20200312C310117B000006060000001592607000000033444800000019270550000000000000000000000000000000000000000000000000000CFR169139      Costa                         ???FR169139      210000000000              1050165030001N
20200312C310117B000006070000000064793000000001360700000000901600000000011760000000000000000000000000000000000000000C4454545       PBK CP Delgado Maranon        ???4454545       210000000000              1050177800001N
20200312C310118T000002530000003470100000000072872200000034894500000000000000000000000000000000000000000000000000000IAS218069      Giraldo                       ???AS218069      210000000000              1050194420001N
20200312C310118T000002540000002296200000000048220200000022962000000000000000000000000000000000000000000000000000000I567278803     Mundy                         ???567278803     210000000000              1050156690001N
20200312C310118T000002550000007043400000000147911600000070434000000000000000000000000000000000000000000000000000000I325325324     Mazzarella                    ???325325324     210000000000              1050195040001N
20200312C310118T000002560000002567100000000053909200000025671000000000000000000000000000000000000000000000000000000I20AD92723     Sabatini                      ???20AD92723     210000000000              1050157020001N
20200312C310118T000002570000007546500000000158476800000075465000000000000000000000000000000000000000000000000000000IYB6022258     Forte                         ???YB6022258     210000000000              1050188350002N
20200312C310118T000002580000003192750000000067047900000031927500000000000000000000000000000000000000000000000000000I30707561110   SCENERY                       ???30707561110   210000000000              1050157170002N
20200312C310118T000002590000001283720000000026958200000012837200000000000000000000000000000000000000000000000000000IPA231544      Proietti                      ???PA231544      210000000000              1050199440003N
20200312C310118T000002600000001070700000000022484700000010707000000000000000000000000000000000000000000000000000000IF10595254     Bahamondespassi               ???F10595254     210000000000              1050156060001N
20200312C310118T000002610000008488200000000178252200000084882000000000000000000000000000000000000000000000000000000I642491253     Stephens                      ???642491253     210000000000              1050157050002N
20200312C310118T000002620000004837285000000101582800000048372850000000000000000000000000000000000000000000000000000I51600002124   Expedia/Hotels.Com            ???51600002124   210000000000              1050155080002N
20200312C310118T000002630000005205150000000109308300000052051500000000000000000000000000000000000000000000000000000I59462555      Buqueras                      ???59462555      210000000000              1050156100001N
20200312C310118T000002640000000808127000000016970700000008081270000000000000000000000000000000000000000000000000000I51600002124   Expedia/Hotels.Com            ???51600002124   210000000000              1050157180002N
20200312C310118T000002650000003218500000000067588600000032185000000000000000000000000000000000000000000000000000000I51600002124   Expedia/Hotels.Com            ???51600002124   210000000000              1050155940002N
20200312C310118T000002660000004274131000000089756900000042741310000000000000000000000000000000000000000000000000000I51600002124   Expedia/Hotels.Com            ???51600002124   210000000000              1050156490002N
20200312C310118T000002670000001354500000000028444600000013545000000000000000000000000000000000000000000000000000000I30714625167   MY BEDS                       ???30714625167   210000000000              1050189420002N
20200312C310118T000002680000004896355000000102823400000048963550000000000000000000000000000000000000000000000000000I51600002124   Expedia/Hotels.Com            ???51600002124   210000000000              1050157090002N
20200312C310118T000002690000003779500000000079369400000037795000000000000000000000000000000000000000000000000000000I51600002124   Expedia/Hotels.Com            ???51600002124   210000000000              1050155930002N
20200312C310118T000002700000007454519000000156544900000074545190000000000000000000000000000000000000000000000000000I51600002124   Expedia/Hotels.Com            ???51600002124   210000000000              1050156780002N
20200312C310118T000002710000001345500000000028255500000013455000000000000000000000000000000000000000000000000000000Iex389566      Ignatovska                    ???ex389566      210000000000              1050202940001N
