20200308C310117B000004750000003507521000000073657900000042441000000000000000000000000000000000000000000000000000000CJ560920       Torres Velazquez              ???J560920       210000000000              1050171550001N
20200308C310117B000004760000000073554000000001544600000001277000000000000000000000000000000000000000000000000000000C              Suarez Berrios                ???              210000000000              1050193510002N
20200308C310117B000004770000001041322000000021867800000013567500000000000000000000000000000000000000000000000000000C488135464     Mueller                       ???488135464     210000000000              1050155230001N
20200308C310117B000004780000001845455000000038754500000022330000000000000000000000000000000000000000000000000000000C              Vieira                        ???              210000000000              1050155830001N
20200308C310117B000004790000000029752000000000624800000000414000000000005400000000000000000000000000000000000000000CPA0586969     Suira Gonzalez                ???PA0586969     210000000000              1050181770001N
20200308C310117B000004800000000103946000000002182900000001257750000000000000000000000000000000000000000000000000000CED9175652     Michalowicz                   ???ED9175652     210000000000              1050189710001N
20200308C310117B000004810000000024793000000000520700000000493500000000000000000000000000000000000000000000000000000CHM360016      Haj-Ali                       ???HM360016      210000000000              1050154810001N
20200308C310117B000004820000000378512000000007948800000004580000000000000000000000000000000000000000000000000000000C593616846     Tasch                         ???593616846     210000000000              1050155610001N
20200308C310117B000004830000000185124000000003887600000002240000000000000000000000000000000000000000000000000000000Cc73k8th39     Prinz                         ???c73k8th39     210000000000              1050155310001N
20200308C310117B000004840000000590909000000012409100000007150000000000000000000000000000000000000000000000000000000Cc73k8th39     Prinz                         ???c73k8th39     210000000000              1050155310003N
20200308C310117B000004850000000025620000000000538000000000310000000000000000000000000000000000000000000000000000000C              Barbur                        ???              210000000000              1050187490001N
20200308C310117B000004860000000590909000000012409100000007150000000000000000000000000000000000000000000000000000000C16CT38249     Rolland                       ???16CT38249     210000000000              1050155320003N
20200308C310117B000004870000000047934000000001006600000000580000000000000000000000000000000000000000000000000000000C16CT38249     Rolland                       ???16CT38249     210000000000              1050155320004N
20200308C310117B000004880000003979577000000083571100000048152880000000000000000000000000000000000000000000000000000C              Fuentes Benitez               ???              210000000000              1050194550001N
20200308C310117B000004890000000623967000000013103300000008250500000000012000000000000000000000000000000000000000000C              Brotos                        ???              210000000000              1050172490001N
20200308C310117B000004900000000028926000000000607400000000499250000000005250000000000000000000000000000000000000000C548599305     Walters                       ???548599305     210000000000              1050155800001N
20200308C310117B000004910000000000000000000000000000000000096750000000000000000000000000000000000000000000000000000C546293198     Segal                         ???546293198     210000000000              1050155570001N
20200308C310117B000004920000000245100000000005147100000002965710000000000000000000000000000000000000000000000000000C1             Marriott Bonvoy  Reimbursement???1             210000000000              1050155570002N
20200308C310118T000002110000003741000000000078561000000037410000000000000000000000000000000000000000000000000000000I              Suarez Berrios                ???              210000000000              1050193510001N
20200308C310118T000002120000008714436000000183003100000087144360000000000000000000000000000000000000000000000000000I488135464     Mueller                       ???488135464     210000000000              1050155230002N
20200308C310118T000002130000005640525000000118451300000056405250000000000000000000000000000000000000000000000000000I              Vieira                        ???              210000000000              1050155830002N
20200308C310118T000002140000001354500000000028444600000013545000000000000000000000000000000000000000000000000000000IHM360016      Haj-Ali                       ???HM360016      210000000000              1050154810002N
20200308C310118T000002150000001077150000000022620200000010771500000000000000000000000000000000000000000000000000000I593616846     Tasch                         ???593616846     210000000000              1050155610002N
20200308C310118T000002160000002031750000000042666900000020317500000000000000000000000000000000000000000000000000000I33708109369   TIP GROUP TRAVEL              ???33708109369   210000000000              1050172490002N
20200308C310118T000002170000001077150000000022620200000010771500000000000000000000000000000000000000000000000000000I491180822     Feibush                       ???491180822     210000000000              1050154720001N
20200308C310118T000002180000001612500000000033862600000016125000000000000000000000000000000000000000000000000000000I473562001     Astesiano                     ???473562001     210000000000              1050151860001N
20200308C310118T000002190000001612500000000033862600000016125000000000000000000000000000000000000000000000000000000I              Chiribao                      ???              210000000000              1050151840001N
20200308C310118T000002200000000445050000000009346100000004450500000000000000000000000000000000000000000000000000000I548599305     Walters                       ???548599305     210000000000              1050155800002N
20200308C310118T000002210000001238400000000026006400000012577500000000000000000000000000000000000000000000000000000Ipaj726405     Peris                         ???paj726405     210000000000              1050156770001N
