20200303C310120A000000470000002902479000000060952100000035120000000000000000000000000000000000000000000000000000000I30697997071   National Shipping             ???30697997071   210000000000              1050188170001N
20200303C310117A000000690000000683223000000014347700000008267000000000000000000000000000000000000000000000000000000I30710266111   ATYCA VIAJES SRL              ???30710266111   210000000000              1050156300002N
20200303C310117A000000700000001366529000000028697100000016535000000000000000000000000000000000000000000000000000000I30710266111   ATYCA VIAJES SRL              ???30710266111   210000000000              1050154770002N
20200303C310120B000000310000027090000000000568890000000327789000000000000000000000000000000000000000000000000000000C55000002126   Cellebrite Inc                ???55000002126   210000000000              1050187820001N
20200303C310120B000000320000021387880000000449145500000258793350000000000000000000000000000000000000000000000000000C55000004242   GRUKUMA TRAVEL SOLUTIONS GRUDO???55000004242   210000000000              1050188820001N
20200303C310117B000000690000000628650000000013201700000007606670000000000000000000000000000000000000000000000000000C30710266111   ATYCA VIAJES SRL              ???30710266111   210000000000              1050156300002N
20200303C310117B000003700000000574050000000012055100000006946010000000000000000000000000000000000000000000000000000C50000006715   GCCL (CAYMAN)FLEET MANAGEMENT ???50000006715   210000000000              1050155370002N
20200303C310117B000003710000000574050000000012055100000006946010000000000000000000000000000000000000000000000000000C50000006715   GCCL (CAYMAN)FLEET MANAGEMENT ???50000006715   210000000000              1050154570002N
20200303C310117B000003720000001291976000000027131500000015632920000000000000000000000000000000000000000000000000000C30546689979   YPF SOCIEDAD ANONIMA          ???30546689979   210000000000              1050186390002N
20200303C310117B000003730000000074628000000001567200000000903000000000000000000000000000000000000000000000000000000C              Cristofori                    ???              210000000000              1050153860001N
20200303C310117B000003740000000168595000000003540500000002040000000000000000000000000000000000000000000000000000000C              Juarez                        ???              210000000000              1050164220001N
20200303C310117B000003750000000173554000000003644600000002100000000000000000000000000000000000000000000000000000000CNS77SF493     Simons                        ???NS77SF493     210000000000              1050148410001N
20200303C310117B000003760000000245100000000005147100000002965710000000000000000000000000000000000000000000000000000C1             Marriott Bonvoy  Reimbursement???1             210000000000              1050155290002N
20200303C310117B000003770000000437190000000009181000000005290000000000000000000000000000000000000000000000000000000C542974332     Hutchinson                    ???542974332     210000000000              1050153960001N
20200303C310117B000003780000000557851000000011714900000006750000000000000000000000000000000000000000000000000000000C              Maas                          ???              210000000000              1050147640001N
20200303C310117B000003790000000574050000000012055100000006946010000000000000000000000000000000000000000000000000000C50000006715   GCCL (CAYMAN)FLEET MANAGEMENT ???50000006715   210000000000              1050154560002N
20200303C310117B000003800000000774793000000016270700000009483750000000010875000000000000000000000000000000000000000C              Ozzan                         ???              210000000000              1050183980002N
20200303C310117B000003810000000314050000000006595000000003800000000000000000000000000000000000000000000000000000000C              Lopez                         ???              210000000000              1050188400001N
20200303C310117B000003820000000314050000000006595000000003800000000000000000000000000000000000000000000000000000000C              Oliva                         ???              210000000000              1050188480001N
20200303C310117B000003830000000068595000000001440500000000954500000000012450000000000000000000000000000000000000000C12345678      Consumidor Final              ???12345678      210000000000              1050188500001N
20200303C310117B000003840000000077686000000001631400000000940000000000000000000000000000000000000000000000000000000C546139896     Mayfield                      ???546139896     210000000000              1050172280001N
20200303C310117B000003850000000048508000000001018700000000586950000000000000000000000000000000000000000000000000000C              Reading                       ???              210000000000              1050172380002N
20200303C310117B000003860000001290000000000027090000000015609000000000000000000000000000000000000000000000000000000C30685341472   UNION CIVICA RADICAL          ???30685341472   210000000000              1050187340002N
20200303C310117B000003870000000305934000000006424600000003701800000000000000000000000000000000000000000000000000000C              Itati Moreiro                 ???              210000000000              1050164460001N
20200303C310117B000003880000001032789000000021688600000012615250000000011850000000000000000000000000000000000000000C              Tapia                         ???              210000000000              1050186760001N
20200303C310117B000003890000000902562000000018953800000011404750000000000000000000000000000000000000000000000000000C536867126     Jaiswal                       ???536867126     210000000000              1050186380001N
20200303C310118T000001700000001225500000000025735500000012255000000000000000000000000000000000000000000000000000000I30661960066   SOUTH AMERICAN TOURS DE ARGENT???30661960066   210000000000              1050139130002N
20200303C310118T000001710000004680620000000098293200000046806200000000000000000000000000000000000000000000000000000I50000002183   HOTEL BEDS USA INC            ???50000002183   210000000000              1050148410002N
20200303C310118T000001720000001698542000000035669400000016985420000000000000000000000000000000000000000000000000000I50000002183   HOTEL BEDS USA INC            ???50000002183   210000000000              1050154540002N
20200303C310118T000001730000002812471000000059062000000028124710000000000000000000000000000000000000000000000000000I51600002124   Expedia/Hotels.Com            ???51600002124   210000000000              1050153960002N
20200303C310118T000001740000001935000000000040635000000019350000000000000000000000000000000000000000000000000000000I33714943249   ESTILO PLUS                   ???33714943249   210000000000              1050153860002N
20200303C310118T000001750000001999500000000041989600000019995000000000000000000000000000000000000000000000000000000I              Ozzan                         ???              210000000000              1050183980001N
20200303C310118T000001760000010361736000000217596400000103617360000000000000000000000000000000000000000000000000000I51600002124   Expedia/Hotels.Com            ???51600002124   210000000000              1050147640002N
20200303C310118T000001770000023742875000000155984800000040016750000000000000000000000000000000000000000000000000000I30708474289   TOWER TRAVEL                  ???30708474289   210000000000              1050119420002N
20200303C310118T000001780000108235000000000859130100000267729060000000000000000000000000000000000000000000000000000I30708474289   TOWER TRAVEL                  ???30708474289   210000000000              1050119350002N
20200303C310118T000001790000001915650000000040228800000019156500000000000000000000000000000000000000000000000000000I536867126     Jaiswal                       ???536867126     210000000000              1050186380002N
20200303C310118T000001800000012858750000000270034800000128587500000000000000000000000000000000000000000000000000000I30708474289   TOWER TRAVEL                  ???30708474289   210000000000              1050119660002N
20200303C310118T000001810000001148100000000024110100000011481000000000000000000000000000000000000000000000000000000I7728298       Rodriguez                     ???7728298       210000000000              1050188930001N
