20200302C310120A000000450000006772500000000142222500000081947250000000000000000000000000000000000000000000000000000I30576856764   JULIA TOURS                   ???30576856764   210000000000              1050187580001N
20200302C310120A000000460000006772500000000142222500000081947250000000000000000000000000000000000000000000000000000I30564751606   PIAMONTE VIAJES               ???30564751606   210000000000              1050187650001N
20200302C310117A000000610000000741750000000015576800000008975180000000000000000000000000000000000000000000000000000I30621745693   CIALE SA                      ???30621745693   210000000000              1050182850002N
20200302C310117A000000620000001354501000000028444500000016389460000000000000000000000000000000000000000000000000000I30561600577   AGENCIA MIYAMOTO              ???30561600577   210000000000              1050154050002N
20200302C310117A000000630000000774000000000016254000000009365400000000000000000000000000000000000000000000000000000I30561600577   AGENCIA MIYAMOTO              ???30561600577   210000000000              1050153910002N
20200302C310117A000000640000001354501000000028444500000016389460000000000000000000000000000000000000000000000000000I30561600577   AGENCIA MIYAMOTO              ???30561600577   210000000000              1050154130002N
20200302C310117A000000650000001354501000000028444500000016389460000000000000000000000000000000000000000000000000000I30561600577   AGENCIA MIYAMOTO              ???30561600577   210000000000              1050154350002N
20200302C310117A000000660000001354501000000028444500000016389460000000000000000000000000000000000000000000000000000I30561600577   AGENCIA MIYAMOTO              ???30561600577   210000000000              1050154240002N
20200302C310117A000000670000000677250000000014222300000008194730000000000000000000000000000000000000000000000000000I30714625167   MY BEDS                       ???30714625167   210000000000              1050154840002N
20200302C310117A000000680000006682001000000140322000000080852210000000000000000000000000000000000000000000000000000I30999270804   TEATRO COLON - OPERA HOUSE    ???30999270804   210000000000              1050168370002N
20200302C310117B000003570000000014876000000000312400000000180000000000000000000000000000000000000000000000000000000CHL688018      Clark                         ???HL688018      210000000000              1050182850001N
20200302C310117B000003580000000039669000000000833100000000480000000000000000000000000000000000000000000000000000000C539375320     Norton                        ???539375320     210000000000              1050170800001N
20200302C310117B000003590000000061994000000001301900000000750130000000000000000000000000000000000000000000000000000CTR2856127     Fukushima                     ???TR2856127     210000000000              1050153910001N
20200302C310117B000003600000000873136000000018335900000010564950000000000000000000000000000000000000000000000000000C33687959979   ENTRETENIMIENTOS PATAGONIA SA ???33687959979   210000000000              1050170560002N
20200302C310117B000003610000000040496000000000850400000000490000000000000000000000000000000000000000000000000000000CFS744352      Gomes                         ???FS744352      210000000000              1050154840001N
20200302C310117B000003620000000245100000000005147100000002965710000000000000000000000000000000000000000000000000000C1             Marriott Bonvoy  Reimbursement???1             210000000000              1050154400002N
20200302C310117B000003630000000000000000000000000000000000000000000000000000000000000000000000000000000000000000000C              Strianese                     ???              210000000000              1050186840001Y
20200302C310117B000003640000000077686000000001631400000000940000000000000000000000000000000000000000000000000000000CPA9767600     Aberdeen                      ???PA9767600     210000000000              1050153820002N
20200302C310117B000003650000000609917000000012808300000007380000000000000000000000000000000000000000000000000000000C564091250     Ross                          ???564091250     210000000000              1050155330002N
20200302C310117B000003660000000143802000000003019800000001740000000000000000000000000000000000000000000000000000000CX3100637      Mioc                          ???X3100637      210000000000              1050165090001N
20200302C310117B000003670000000314050000000006595000000003800000000000000000000000000000000000000000000000000000000C              vela                          ???              210000000000              1050187720001N
20200302C310117B000003680000000323140000000006786000000004139500000000022950000000000000000000000000000000000000000C              Tiberio                       ???              210000000000              1050168370001N
20200302C310117B000003690000000058843000000001235700000000748000000000003600000000000000000000000000000000000000000CPA0363128     PBK TC Bedoya                 ???PA0363128     210000000000              1050155420001N
20200302C310118T000001570000000445050000000009346100000004450500000000000000000000000000000000000000000000000000000I564294647     Kula                          ???564294647     210000000000              1050154960001N
20200302C310118T000001580000000445050000000009346100000004450500000000000000000000000000000000000000000000000000000I564294647     Kula                          ???564294647     210000000000              1050154950001N
20200302C310118T000001590000000638550000000013409600000006385500000000000000000000000000000000000000000000000000000I33714943249   ESTILO PLUS                   ???33714943249   210000000000              1050153900002N
20200302C310118T000001600000000638550000000013409600000006385500000000000000000000000000000000000000000000000000000I33714943249   Estiloplus                    ???33714943249   210000000000              1050154260002N
20200302C310118T000001610000000638550000000013409600000006385500000000000000000000000000000000000000000000000000000I33714943249   Estiloplus                    ???33714943249   210000000000              1050154250002N
20200302C310118T000001620000002127210000000044671400000021272100000000000000000000000000000000000000000000000000000IPA9767600     Aberdeen                      ???PA9767600     210000000000              1050153820001N
20200302C310118T000001630000001012650000000021265700000010126500000000000000000000000000000000000000000000000000000I564091250     Ross                          ???564091250     210000000000              1050155330001N
20200302C310118T000001640000002706375000000056834000000027063750000000000000000000000000000000000000000000000000000I33708109369   TIP GROUP TRAVEL              ???33708109369   210000000000              1050165090002N
20200302C310118T000001650000000445050000000009346100000004450500000000000000000000000000000000000000000000000000000Iec4560041     Zhang                         ???ec4560041     210000000000              1050155770001N
20200302C310118T000001660000000638550000000013409600000006385500000000000000000000000000000000000000000000000000000I33714943249   ESTILO PLUS                   ???33714943249   210000000000              1050153850002N
20200302C310118T000001670000001122300000000023568300000011223000000000000000000000000000000000000000000000000000000I584019639     Cleland                       ???584019639     210000000000              1050134370001N
20200302C310118T000001680000001070700000000022484700000010707000000000000000000000000000000000000000000000000000000I123           Littleton                     ???123           210000000000              1050154930001N
20200302C310118T000001690000001331076000000027952600000013310760000000000000000000000000000000000000000000000000000I51600002124   Expedia/Hotels.Com            ???51600002124   210000000000              1050147860002N
