20200317C310117A000000980000001300000000000027300000000015756000000000000000000000000000000000000000000000000002600I30688020715   J.C.R. S.A.                   ???30688020715   210000000000              1050204720002N
20200317C560117B000000180000000000000-000000000000-000003917859-000000000000-000000000000-000000000000-000000000000C              Farias                        ???              210000000000              1050172450001N
20200317C560117B000000190000000000000-000000000000-000003917859-000000000000-000000000000-000000000000-000000000000C              Farias                        ???              210000000000              1050172450002N
20200317C310120B000000510000034745455000000729654500000420420000000000000000000000000000000000000000000000000000000C123456789     FILARMONICA GEDAI             ???123456789     210000000000              1050205090002N
20200317C310117B000000980000004270744000000089685600000051676000000000000000000000000000000000000000000000000000000C30688020715   J.C.R. S.A.                   ???30688020715   210000000000              1050204720002N
20200317C310117B000006940000000534711000000011228900000006470000000000000000000000000000000000000000000000000000000CLM213190      Mccarthy                      ???LM213190      210000000000              1050203420001N
20200317C310117B000006950000000314050000000006595000000003800000000000000000000000000000000000000000000000000000000C              Amaral                        ???              210000000000              1050205050001N
20200317C310117B000006960000001111500000000023341500000013449150000000000000000000000000000000000000000000000000000C              Gonzalez                      ???              210000000000              1050204810001N
20200317C310117B000006970000000270661000000005683900000003275000000000000000000000000000000000000000000000000000000C531039844     Tyner Patsy                   ???531039844     210000000000              1050205080001N
20200317C310117B000006980000000033058000000000694200000000400000000000000000000000000000000000000000000000000000000C12345678      Consumidor Final              ???12345678      210000000000              1050205140001N
20200317C310117B000006990000000033058000000000694200000000400000000000000000000000000000000000000000000000000000000C12345678      Consumidor Final              ???12345678      210000000000              1050205170001N
20200317C310117B000007000000000998967000000020978300000012131000000000004350000000000000000000000000000000000000000C              Tapia                         ???              210000000000              1050205100001N
20200317C310121T000000260000001344000000000028224100000013440000000000000000000000000000000000000000000000000000000I30714625167   MY BEDS                       ???30714625167   210000000000              1050169650002N
20200317C310121T000000270000013061250000000274286300000130612500000000000000000000000000000000000000000000000000000I30642724459   TOP DEST                      ???30642724459   210000000000              1050183830002N
20200317C310118T000003290000004392180000000092235900000043921800000000000000000000000000000000000000000000000000000I1654768       Rolfguenter                   ???1654768       210000000000              1050156860001N
20200317C310118T000003300000002031750000000042666900000020317500000000000000000000000000000000000000000000000000000I30714625167   MY BEDS                       ???30714625167   210000000000              1050177060003N
20200317C310118T000003310000004212000000000088452000000042120000000000000000000000000000000000000000000000000000000ILM213190      Mccarthy                      ???LM213190      210000000000              1050203420002N
