20200314C310117A000000930000013976558000000293507700000169116350000000000000000000000000000000000000000000000000000I30999270804   TEATRO COLON - OPERA HOUSE    ???30999270804   210000000000              1050146810002N
20200314C310117B000006390000000092562000000001943800000001900000000000000000000000000000000000000000000000000000000C536392370     Rupp                          ???536392370     210000000000              1050156880001N
20200314C310117B000006400000000107851000000002264900000001481250000000017625000000000000000000000000000000000000000Ck727892       Nieves Rodriguez              ???k727892       210000000000              1050164530001N
20200314C310117B000006410000000066116000000001388400000001310000000000012000000000000000000000000000000000000000000CNNJ63BR42     Slob                          ???NNJ63BR42     210000000000              1050157060001N
20200314C310117B000006420000000054545000000001145500000000927000000000007200000000000000000000000000000000000000000CYA6640451     Gentili                       ???YA6640451     210000000000              1050156390001N
20200314C310117B000006430000000072727000000001527300000000880000000000000000000000000000000000000000000000000000000CG25065389     Maldonado                     ???G25065389     210000000000              1050202350002N
20200314C310117B000006440000000236364000000004963600000002860000000000000000000000000000000000000000000000000000000C572792930     Dawson                        ???572792930     210000000000              1050203080002N
20200314C310117B000006450000000043802000000000919800000001112000000000000000000000000000000000000000000000000000000CGA764779      Mcmahon                       ???GA764779      210000000000              1050155190001N
20200314C310117B000006460000000000017000000000000300000000583700000000000000000000000000000000000000000000000000000C97016569      Italiani                      ???97016569      210000000000              1050196040001N
20200314C310117B000006470000000413636000000008686400000005533750000000052875000000000000000000000000000000000000000CPB0935483     Lokar                         ???PB0935483     210000000000              1050146790001N
20200314C310117B000006480000014529008000000305109200000175801000000000000000000000000000000000000000000000000000000C30999270804   TEATRO COLON - OPERA HOUSE    ???30999270804   210000000000              1050146790002N
20200314C310117B000006490000000029752000000000624800000000360000000000000000000000000000000000000000000000000000000C              Wagner                        ???              210000000000              1050139160001N
20200314C310117B000006500000000144215000000003028500000002135000000000000000000000000000000000000000000000000000000C511950460     Rasch                         ???511950460     210000000000              1050156900001N
20200314C310117B000006510000000109504000000002299600000001325000000000000000000000000000000000000000000000000000000C503988794     Jacoby                        ???503988794     210000000000              1050156580001N
20200314C310117B000006520000000101653000000002134700000001620000000000000000000000000000000000000000000000000000000C539295053     Kraus                         ???539295053     210000000000              1050156570001N
20200314C310117B000006530000000214876000000004512400000003761750000000000000000000000000000000000000000000000000000Cyb2926691     Giani                         ???yb2926691     210000000000              1050128100001N
20200314C310117B000006540000026663001000000559923000000322622310000000000000000000000000000000000000000000000000000C30999270804   TEATRO COLON - OPERA HOUSE    ???30999270804   210000000000              1050128490002N
20200314C310117B000006550000001229300000000025815300000014874530000000000000000000000000000000000000000000000000000C1             Marriott Bonvoy  Reimbursement???1             210000000000              1050156210002N
20200314C310117B000006560000000194215000000004078500000002350000000000000000000000000000000000000000000000000000000C591797286     Jawhar                        ???591797286     210000000000              1050199300002N
20200314C310117B000006570000001976000000000041496000000023909600000000000000000000000000000000000000000000000000000C              Grillo                        ???              210000000000              1050200030001N
20200314C310117B000006580000000109091000000002290900000001320000000000000000000000000000000000000000000000000000000C520680197     Bendersky                     ???520680197     210000000000              1050190500001N
20200314C310117B000006590000017843711000000374717900000215908900000000000000000000000000000000000000000000000000000C30999270804   TEATRO COLON - OPERA HOUSE    ???30999270804   210000000000              1050128100002N
20200314C310117B000006600000002275413000000047783700000028171500000000063900000000000000000000000000000000000000000C648870056     Harty                         ???648870056     210000000000              1050154820002N
20200314C310117B000006610000000180992000000003800800000002190000000000000000000000000000000000000000000000000000000C488762675     Czyzewski                     ???488762675     210000000000              1050181210002N
20200314C310117B000006620000000000000000000000000000000000291750000000000000000000000000000000000000000000000000000C50000002124   GATE 1 TRAVEL                 ???50000002124   210000000000              1050181210003N
20200314C310117B000006630000000000000000000000000000000000677250000000000000000000000000000000000000000000000000000C642491253     Stephens                      ???642491253     210000000000              1050157050001N
20200314C310117B000006640000000085124000000001787600000001030000000000000000000000000000000000000000000000000000000C599956780     Sutton                        ???599956780     210000000000              1050155530003N
20200314C310117B000006650000000129587000000002721300000001715600000000014760000000000000000000000000000000000000000CPA0544990     CP Arosemena Gonzalez         ???PA0544990     210000000000              1050177880001N
20200314C310117B000006660000000652893000000013710700000007900000000000000000000000000000000000000000000000000000000C548682699     Yaeger                        ???548682699     210000000000              1050157110001N
20200314C310118T000002860000001365000000000028665000000013650000000000000000000000000000000000000000000000000000000I33708109369   TIP GROUP TRAVEL              ???33708109369   210000000000              1050156890002N
20200314C310118T000002870000001365000000000028665000000013650000000000000000000000000000000000000000000000000000000I33708109369   TIP GROUP TRAVEL              ???33708109369   210000000000              1050156880002N
20200314C310118T000002880000002015000000000042315000000020150000000000000000000000000000000000000000000000000000000Ik727892       Nieves Rodriguez              ???k727892       210000000000              1050164530002N
20200314C310118T000002890000002314000000000048594000000023140000000000000000000000000000000000000000000000000000000INNJ63BR42     Slob                          ???NNJ63BR42     210000000000              1050157060002N
20200314C310118T000002900000002496000000000052416000000024960000000000000000000000000000000000000000000000000000000IG25065389     Maldonado                     ???G25065389     210000000000              1050202350001N
20200314C310118T000002910000001921484000000040351100000019214840000000000000000000000000000000000000000000000000000I51600002124   Expedia/Hotels.Com            ???51600002124   210000000000              1050156140002N
20200314C310118T000002920000001743030000000036603500000017430300000000000000000000000000000000000000000000000000000I51600002124   Expedia/Hotels.Com            ???51600002124   210000000000              1050156910002N
20200314C310118T000002930000000897000000000018837000000008970000000000000000000000000000000000000000000000000000000I572792930     Dawson                        ???572792930     210000000000              1050203080001N
20200314C310118T000002940000009457250000000198602500000094572500000000000000000000000000000000000000000000000000000IGA764779      Mcmahon                       ???GA764779      210000000000              1050155190002N
20200314C310118T000002950000008109200000000170293400000081674000000000000000000000000000000000000000000000000000000I29553441      Mong                          ???29553441      210000000000              1050156720002N
20200314C310118T000002960000000682500000000014332500000006825000000000000000000000000000000000000000000000000000000I33708109369   TIP GROUP TRAVEL              ???33708109369   210000000000              1050153620002N
20200314C310118T000002970000005833716000000122508200000059117160000000000000000000000000000000000000000000000000000I1654768       Rolfguenter                   ???1654768       210000000000              1050156860002N
20200314C310118T000002980000001616259000000033941500000016162590000000000000000000000000000000000000000000000000000I51600002124   Expedia/Hotels.Com            ???51600002124   210000000000              1050156900002N
20200314C310118T000002990000001615486000000033925300000016154860000000000000000000000000000000000000000000000000000I51600002124   Expedia/Hotels.Com            ???51600002124   210000000000              1050156580002N
20200314C310118T000003000000001345500000000028255500000013455000000000000000000000000000000000000000000000000000000Iex389566      Ignatovska                    ???ex389566      210000000000              1050202940001N
20200314C310118T000003010000000715000000000015015000000007150000000000000000000000000000000000000000000000000000000I30661960066   SOUTH AMERICAN TOURS DE ARGENT???30661960066   210000000000              1050139160002N
20200314C310118T000003020000002072000000000043512000000021110000000000000000000000000000000000000000000000000000000I30661960066   SOUTH AMERICAN TOURS DE ARGENT???30661960066   210000000000              1050151720002N
20200314C310118T000003030000001283550000000026954600000012835500000000000000000000000000000000000000000000000000000I503988794     Jacoby                        ???503988794     210000000000              1050156580003N
20200314C310118T000003040000001365000000000028665000000013650000000000000000000000000000000000000000000000000000000I33708109369   TIP GROUP TRAVEL              ???33708109369   210000000000              1050192590002N
20200314C310118T000003050000007915000000000166215200000079732000000000000000000000000000000000000000000000000000000I16545146      Newman                        ???16545146      210000000000              1050156670001N
20200314C310118T000003060000000448500000000009418500000004680000000000000000000000000000000000000000000000000000000I591797286     Jawhar                        ???591797286     210000000000              1050199300001N
20200314C310118T000003070000002080000000000043680000000020800000000000000000000000000000000000000000000000000000000I520680197     Bendersky                     ???520680197     210000000000              1050190500002N
20200314C310118T000003080000003122250000000065567500000032580000000000000000000000000000000000000000000000000000000I648870056     Harty                         ???648870056     210000000000              1050154820001N
20200314C310118T000003090000031910050000000670111400000322589500000000000000000000000000000000000000000000000000000I599956780     Sutton                        ???599956780     210000000000              1050155530001N
20200314C310118T000003100000000617500000000012967500000006175000000000000000000000000000000000000000000000000000000I30708474289   TOWER TRAVEL                  ???30708474289   210000000000              1050168530002N
20200314C310118T000003110000002424389000000050912200000024243890000000000000000000000000000000000000000000000000000I51600002124   Expedia/Hotels.Com            ???51600002124   210000000000              1050156570002N
