20200307C310117A000000780000004107558000000086258700000049701450000000000000000000000000000000000000000000000000000I30561033885   Viajes Apolo                  ???30561033885   210000000000              1050194540002N
20200307C310117A000000790000003394676000000071288200000041075580000000000000000000000000000000000000000000000000000I30561033885   Viajes Apolo                  ???30561033885   210000000000              1050194540002N
20200307C560117B000000120000004107558-000000862587-000004970145-000000000000-000000000000-000000000000-000000000000Cfp496934      Vieira-De-Moraes              ???fp496934      210000000000              1050194540002N
20200307C560117B000000130000003394676-000000712882-000004107558-000000000000-000000000000-000000000000-000000000000C30561033885   Viajes Apolo                  ???30561033885   210000000000              1050194540002N
20200307C310117B000004510000000436364000000009163600000005667000000000000000000000000000000000000000000000000000000C              Orfini                        ???              210000000000              1050146700001N
20200307C310117B000004520000000980400000000020588400000011862840000000000000000000000000000000000000000000000000000C1             Marriott Bonvoy  Reimbursement???1             210000000000              1050146700002N
20200307C310117B000004530000000000000000000000000000000000193500000000000000000000000000000000000000000000000000000C              Fernandez                     ???              210000000000              1050154750002N
20200307C310117B000004540000000024793000000000520700000000493500000000000000000000000000000000000000000000000000000C              Lewis                         ???              210000000000              1050155070001N
20200307C310117B000004550000000000000000000000000000000000193500000000000000000000000000000000000000000000000000000Cya9917014     Ciotoli                       ???ya9917014     210000000000              1050154520001N
20200307C310117B000004560000000114050000000002395000000001380000000000000000000000000000000000000000000000000000000C499684147     Joshi                         ???499684147     210000000000              1050173220001N
20200307C310117B000004570000000084298000000001770200000001452000000000004500000000000000000000000000000000000000000CG33244351     Moad de Fuentes               ???G33244351     210000000000              1050154770001N
20200307C310117B000004580000000628397000000013196300000007807600000000020400000000000000000000000000000000000000000C21789273      Vischi                        ???21789273      210000000000              1050186630001N
20200307C310117B000004590000000000000000000000000000000000193500000000000000000000000000000000000000000000000000000CC7JW77KXZ     Kahre                         ???C7JW77KXZ     210000000000              1050155060001N
20200307C310117B000004600000003237900000000067995900000039178590000000000000000000000000000000000000000000000000000C              Farias                        ???              210000000000              1050172450001N
20200307C310117B000004610000000251240000000005276000000003040000000000000000000000000000000000000000000000000000000C588859358     Pulaski                       ???588859358     210000000000              1050173160001N
20200307C310117B000004620000000051240000000001076000000001007000000000000000000000000000000000000000000000000000000C478019892     Killpack                      ???478019892     210000000000              1050155010001N
20200307C310117B000004630000000518802000000010894800000006277500000000000000000000000000000000000000000000000000000C              Newland                       ???              210000000000              1050155140001N
20200307C310117B000004640000001470600000000030882600000017794260000000000000000000000000000000000000000000000000000C1             Marriott Bonvoy  Reimbursement???1             210000000000              1050155140002N
20200307C310117B000004650000000206612000000004338800000002693500000000000000000000000000000000000000000000000000000C519658522     Cofield                       ???519658522     210000000000              1050154460001N
20200307C310117B000004660000000008264000000000173600000000680500000000000000000000000000000000000000000000000000000Caad538285     Palladino                     ???aad538285     210000000000              1050155390001N
20200307C310117B000004670000000619200000000013003200000007492320000000000000000000000000000000000000000000000000000C642927712     Keene                         ???642927712     210000000000              1050194590001N
20200307C310117B000004680000000619200000000013003200000007492320000000000000000000000000000000000000000000000000000C642927712     Keene                         ???642927712     210000000000              1050187020001N
20200307C310117B000004690000001230962000000025850200000014894640000000000000000000000000000000000000000000000000000C642927712     Keene                         ???642927712     210000000000              1050159980001N
20200307C310117B000004700000004953600000000104025600000059938560000000000000000000000000000000000000000000000000000C642927712     Keene                         ???642927712     210000000000              1050159990001N
20200307C310117B000004710000000023140000000000486000000000280000000000000000000000000000000000000000000000000000000C              Dos Santos                    ???              210000000000              1050173380001N
20200307C310117B000004720000000407851000000008564900000004935000000000000000000000000000000000000000000000000000000C547134619     Reape                         ???547134619     210000000000              1050155300001N
20200307C310117B000004730000001543719000000032418100000018679000000000000000000000000000000000000000000000000000000C              Vara                          ???              210000000000              1050186690001N
20200307C310117B000004740000000094545000000001985500000001315600000000017160000000000000000000000000000000000000000CPA0495019     TC Lam                        ???PA0495019     210000000000              1050177610001N
20200307C310118T000002020000001406100000000029528100000014061000000000000000000000000000000000000000000000000000000I              Fernandez                     ???              210000000000              1050154750001N
20200307C310118T000002030000001283550000000026954600000012835500000000000000000000000000000000000000000000000000000I498419540     Ostezan                       ???498419540     210000000000              1050155200001N
20200307C310118T000002040000000638550000000013409600000006385500000000000000000000000000000000000000000000000000000I33714943249   Estiloplus                    ???33714943249   210000000000              1050154520002N
20200307C310118T000002050000000677250000000014222300000006772500000000000000000000000000000000000000000000000000000I33708109369   TIP GROUP TRAVEL              ???33708109369   210000000000              1050155060002N
20200307C310118T000002060000000838794000000017614700000008387940000000000000000000000000000000000000000000000000000I50000004259   Abreu On Line                 ???50000004259   210000000000              1050154760002N
20200307C310118T000002070000001780200000000037384400000017802000000000000000000000000000000000000000000000000000000I478019892     Killpack                      ???478019892     210000000000              1050155010002N
20200307C310118T000002080000002425200000000050929200000024252000000000000000000000000000000000000000000000000000000I519658522     Cofield                       ???519658522     210000000000              1050154460002N
20200307C310118T000002090000005032935000000105691500000050329350000000000000000000000000000000000000000000000000000Iaad538285     Palladino                     ???aad538285     210000000000              1050155390002N
20200307C310118T000002100000004360200000000091564400000043602000000000000000000000000000000000000000000000000000000I547134619     Reape                         ???547134619     210000000000              1050155300002N
