20200305C310120A000000500000010375704000000217889800000125546020000000000000000000000000000000000000000000000000000I33707573169   PHARMADORF                    ???33707573169   210000000000              1050190980001N
20200305C310120A000000510000131494711000002761388900001591086000000000000000000000000000000000000000000000000000000I30707287477   HUB TRAVEL                    ???30707287477   210000000000              1050192280001N
20200305C310117A000000720000002709002000000056889000000032778920000000000000000000000000000000000000000000000000000I30714625167   MY BEDS                       ???30714625167   210000000000              1050155620002N
20200305C310117A000000730000001044174000000021927600000012634500000000000000000000000000000000000000000000000000000I30711563098   MARCELO ROSSINI S.A.          ???30711563098   210000000000              1050183740002N
20200305C310117A000000740000000645000000000013545000000007804500000000000000000000000000000000000000000000000000000I30711563098   MARCELO ROSSINI S.A.          ???30711563098   210000000000              1050188360002N
20200305C310117A000000750000002612251000000054857300000031608240000000000000000000000000000000000000000000000000000I30506944666   AVIANCA                       ???30506944666   210000000000              1050186570002N
20200305C560120B000000050000129456033-000027185767-000156641800-000000000000-000000000000-000000000000-000000000000C50000002205   COMITE OLIMPICO DE PANAMA     ???50000002205   210000000000              1050192350001N
20200305C310120B000000340000058050000000001219050000000702405000000000000000000000000000000000000000000000000000000C30709363588   FUNDASAMIN - FUNDACION SALUD M???30709363588   210000000000              1050191270001N
20200305C310120B000000350000055773843000001171250700000674863500000000000000000000000000000000000000000000000000000C50000002124   GATE 1 TRAVEL                 ???50000002124   210000000000              1050191320001N
20200305C310117B000000720000001714501000000036004500000020745460000000000000000000000000000000000000000000000000000C30714625167   MY BEDS                       ???30714625167   210000000000              1050155620002N
20200305C310117B000004110000001741501000000036571500000021072160000000000000000000000000000000000000000000000000000C30506944666   AVIANCA                       ???30506944666   210000000000              1050187370002N
20200305C310117B000004120000000161157000000003384300000002242500000000029250000000000000000000000000000000000000000C66563541      Granados                      ???66563541      210000000000              1050188370001N
20200305C310117B000004130000001741501000000036571500000021072160000000000000000000000000000000000000000000000000000C30506944666   AVIANCA                       ???30506944666   210000000000              1050188370002N
20200305C310117B000004140000000089256000000001874400000001242000000000016200000000000000000000000000000000000000000C4454554       Stone                         ???4454554       210000000000              1050172920001N
20200305C310117B000004150000000014876000000000312400000000760500000000000000000000000000000000000000000000000000000C              Khalil                        ???              210000000000              1050155090002N
20200305C310117B000004160000000000000000000000000000000000483750000000000000000000000000000000000000000000000000000CFS306849      Campos                        ???FS306849      210000000000              1050154410002N
20200305C310117B000004170000000012562000000000263800000000152000000000000000000000000000000000000000000000000000000CPA505748788   CP Cullen                     ???PA505748788   210000000000              1050181630001N
20200305C310117B000004180000000000000000000000000000000000289500000000000000000000000000000000000000000000000000000CPA4587964     Teran                         ???PA4587964     210000000000              1050155490002N
20200305C310117B000004190000000202479000000004252100000002740250000000000000000000000000000000000000000000000000000CU3464005      Strohmeier                    ???U3464005      210000000000              1050155620001N
20200305C310117B000004200000000516000000000010836000000006243600000000000000000000000000000000000000000000000000000CPA5478964     Hessel                        ???PA5478964     210000000000              1050163220001N
20200305C310117B000004210000001429383000000030017100000017348040000000005250000000000000000000000000000000000000000C              Vincenti                      ???              210000000000              1050176970001N
20200305C310117B000004220000000048760000000001024000000000651500000000006150000000000000000000000000000000000000000C              **TC** Aguilera               ???              210000000000              1050171890001N
20200305C310117B000004230000001424910000000029923100000017293910000000005250000000000000000000000000000000000000000C              Dagatti                       ???              210000000000              1050189960001N
20200305C310117B000004240000000000000000000000000000000000580500000000000000000000000000000000000000000000000000000CYB0796536     Giorgiutti                    ???YB0796536     210000000000              1050154860001N
20200305C310117B000004250000000000000000000000000000000000580000000000000000000000000000000000000000000000000000000CYA8207697     Arone Di Valentino            ???YA8207697     210000000000              1050154550001N
20200305C310117B000004260000000014876000000000312400000000180000000000000000000000000000000000000000000000000000000C              STURBA                        ???              210000000000              1050191780001N
20200305C310117B000004270000000024793000000000520700000000300000000000000000000000000000000000000000000000000000000C              Grub                          ???              210000000000              1050191850001N
20200305C310117B000004280000000024793000000000520700000000300000000000000000000000000000000000000000000000000000000C              Aponte                        ???              210000000000              1050192430001N
20200305C310117B000004290000000000000000000000000000000000290250000000000000000000000000000000000000000000000000000Caq829001      Rodriguez Aparcio             ???aq829001      210000000000              1050186570001N
20200305C310117B000004300000000515702000000010829800000006723000000000048300000000000000000000000000000000000000000C245056807     Batres                        ???245056807     210000000000              1050154450002N
20200305C310117B000004310000000030744000000000645600000000427800000000005580000000000000000000000000000000000000000CPA0298585     Fruto Moreno                  ???PA0298585     210000000000              1050179270001N
20200305C310117B000004320000000046281000000000971900000000644000000000008400000000000000000000000000000000000000000CPA0663440     Barria Biendicho              ???PA0663440     210000000000              1050179260001N
20200305C310118T000001910000002696100000000056618200000026961000000000000000000000000000000000000000000000000000000IC8PGF4CVR     Kuemmel                       ???C8PGF4CVR     210000000000              1050154990002N
20200305C310118T000001920000003813885000000080091600000038138850000000000000000000000000000000000000000000000000000I              Khalil                        ???              210000000000              1050155090001N
20200305C310118T000001930000002528400000000053096400000025284000000000000000000000000000000000000000000000000000000IFS306849      Campos                        ???FS306849      210000000000              1050154410001N
20200305C310118T000001940000003966750000000083301900000039667500000000000000000000000000000000000000000000000000000IPA4587964     Teran                         ???PA4587964     210000000000              1050155490001N
20200305C310118T000001950000000709500000000014899500000007095000000000000000000000000000000000000000000000000000000I30661960066   SOUTH AMERICAN TOURS DE ARGENT???30661960066   210000000000              1050155270002N
20200305C310118T000001960000003637800000000076393800000036668250000000000000000000000000000000000000000000000000000I245056807     Batres                        ???245056807     210000000000              1050154450001N
