20200313C560117A000000010000000000000-000000000000-000000000000-000000000000-000000000000-000000000000-000000000000I30711563098   MARCELO ROSSINI S.A.          ???30711563098   210000000000              1050170000002Y
20200313C560117A000000020000000000000-000000000000-000000000000-000000000000-000000000000-000000000000-000000000000I30711563098   MARCELO ROSSINI S.A.          ???30711563098   210000000000              1050180000002Y
20200313C310120A000000570000004892562000000102743800000059200000000000000000000000000000000000000000000000000000000I30659436104   Asociacion Amigos de la Avenid???30659436104   210000000000              1050191060001N
20200313C310117A000000830000002333893000000049011800000029127030000000018675000000000000000000000000000000000070017I30700437457   PARADIGM GEOPHYSCAL SA        ???30700437457   210000000000              1050190970002N
20200313C310117A000000840000003196437000000067125200000038831390000000015450000000000000000000000000000000000000000I30516791922   GANADERA SALLIQUELO S.A.      ???30516791922   210000000000              1050198260002N
20200313C310117A000000850000002836050000000059557100000034316210000000000000000000000000000000000000000000000000000I30633633602   POLYAR S A C I F              ???30633633602   210000000000              1050192740002N
20200313C310117A000000860000003320348000000069727300000040176210000000000000000000000000000000000000000000000000000I27057803806   Noemi Menghini                ???27057803806   210000000000              1050192750004N
20200313C310117A000000870000000000000000000000000000000000000000000000000000000000000000000000000000000000000000000I30711563098   MARCELO ROSSINI S.A.          ???30711563098   210000000000              1050193270002Y
20200313C310117A000000880000013832001000000290472000000167367210000000000000000000000000000000000000000000000000000I30999270804   TEATRO COLON - OPERA HOUSE    ???30999270804   210000000000              1050170100002N
20200313C310117A000000890000001290000000000027090000000015634800000000000000000000000000000000000000000000000002580I30688020715   J.C.R. S.A.                   ???30688020715   210000000000              1050182910002N
20200313C310117A000000900000000987420000000020735800000012044480000000000000000000000000000000000000000000000009670I30711388768   DA FRE OBRAS CIVILES S.A.     ???30711388768   210000000000              1050186790002N
20200313C310117A000000910000000000000000000000000000000000000000000000000000000000000000000000000000000000000000000I30711563098   MARCELO ROSSINI S.A.          ???30711563098   210000000000              1050193270002Y
20200313C310117A000000920000000873140000000018336000000011032360000000000000000000000000000000000000000000000046736I30711563098   MARCELO ROSSINI S.A.          ???30711563098   210000000000              1050193270002N
20200313C560120B000000080000004427500-000000929775-000005357275-000000000000-000000000000-000000000000-000000000000C30709949817   GOBIERNO DE SALTA             ???30709949817   210000000000              1050203280001N
20200313C560120B000000090000000645248-000000135502-000000780750-000000000000-000000000000-000000000000-000000000000C30709949817   GOBIERNO DE SALTA             ???30709949817   210000000000              1050203290001N
20200313C560120B000000100000004427500-000000929775-000005357275-000000000000-000000000000-000000000000-000000000000C30709949817   GOBIERNO DE SALTA             ???30709949817   210000000000              1050203310001N
20200313C560117B000000160000000000000-000000000000-000000000000-000000000000-000000000000-000000000000-000000000000C910428279     Walton                        ???910428279     210000000000              1050280000002Y
20200313C560117B000000170000005557751-000001167128-000006724879-000000000000-000000000000-000000000000-000000000000C910428279     Walton                        ???910428279     210000000000              1050157100004N
20200313C310120B000000430000004427500000000092977500000053572750000000000000000000000000000000000000000000000000000C30709949817   GOBIERNO DE SALTA             ???30709949817   210000000000              1050203300001N
20200313C310120B000000440000004427500000000092977500000053572750000000000000000000000000000000000000000000000000000C30709949817   GOBIERNO DE SALTA             ???30709949817   210000000000              1050203330001N
20200313C310120B000000450000000645248000000013550200000007807500000000000000000000000000000000000000000000000000000C30709949817   GOBIERNO DE SALTA             ???30709949817   210000000000              1050203340001N
20200313C310117B000006080000000243388000000005111200000002945000000000000000000000000000000000000000000000000000000C565434284     Gebhardt                      ???565434284     210000000000              1050156420001N
20200313C310117B000006090000000740496000000015550400000009347750000000000000000000000000000000000000000000000000000C133389184     Rodriguez Zanella             ???133389184     210000000000              1050194980002N
20200313C310117B000006100000000907252000000019052300000010977750000000000000000000000000000000000000000000000000000C              Ayestaran                     ???              210000000000              1050163240001N
20200313C310117B000006110000000990727000000020805300000011987800000000000000000000000000000000000000000000000000000C              Marquez                       ???              210000000000              1050195450001N
20200313C310117B000006120000000139669000000002933100000001690000000000000000000000000000000000000000000000000000000CFR325161      Bonincontro                   ???FR325161      210000000000              1050188640001N
20200313C310117B000006130000000000000000000000000000000000582000000000000000000000000000000000000000000000000000000CCA284585      Nunes da Costa Figueiredo     ???CA284585      210000000000              1050134900001N
20200313C310117B000006140000000386777000000008122300000004680000000000000000000000000000000000000000000000000000000C752880581     Stoyakina                     ???752880581     210000000000              1050200460001N
20200313C310117B000006150000003791724000000079626200000046113860000000023400000000000000000000000000000000000000000C30709949817   GOBIERNO DE SALTA             ???30709949817   210000000000              1050199090002N
20200313C310117B000006160000000114050000000002395000000001477500000000000000000000000000000000000000000000000000000CP0366900      Wischenka                     ???P0366900      210000000000              1050190280001N
20200313C310117B000006170000000418595000000008790500000005607250000000054225000000000000000000000000000000000000000C              Andrade                       ???              210000000000              1050186710001N
20200313C310117B000006180000000619200000000013003200000007492320000000000000000000000000000000000000000000000000000C642927712     Keene                         ???642927712     210000000000              1050187020001N
20200313C310117B000006190000001238400000000026006400000014984640000000000000000000000000000000000000000000000000000C642927712     Keene                         ???642927712     210000000000              1050159980001N
20200313C310117B000006200000000279339000000005866100000003380000000000000000000000000000000000000000000000000000000C4990979811    Corcoran                      ???4990979811    210000000000              1050155960002N
20200313C310117B000006210000001243200000000026107200000015042720000000000000000000000000000000000000000000000000000Cpa2154516     Cheepchol                     ???pa2154516     210000000000              1050156080001N
20200313C310117B000006220000000398347000000008365300000005699000000000029400000000000000000000000000000000000000000C564023936     Gage                          ???564023936     210000000000              1050156340001N
20200313C310117B000006230000000829752000000017424800000010040000000000000000000000000000000000000000000000000000000C51651651      Simphony Cash                 ???51651651      210000000000              1050203000001N
20200313C310117B000006240000001584633000000033277300000000001010000000000000000000000000000000000000000000000000000CFR169139      Costa                         ???FR169139      210000000000              1050165030001N
20200313C310117B000006250000000028926000000000607400000000545000000000000000000000000000000000000000000000000000000CYB18008793    Boldrini                      ???YB18008793    210000000000              1050156120001N
20200313C310117B000006260000000000000000000000000000000000195000000000000000000000000000000000000000000000000000000CYA8207697     Arone Di Valentino            ???YA8207697     210000000000              1050156130001N
20200313C310117B000006270000000000000000000000000000000000000000000000000000000000000000000000000000000000000000000C910428279     Walton                        ???910428279     210000000000              1050157100002Y
20200313C310117B000006280000000313223000000006577700000004269250000000009150000000000000000000000000000000000000000C910428279     Walton                        ???910428279     210000000000              1050157100001N
20200313C310117B000006290000000000000000000000000000000000195000000000000000000000000000000000000000000000000000000CYB0796536     Giorgiutti                    ???YB0796536     210000000000              1050156400001N
20200313C310117B000006300000005557751000000116712800000067248790000000000000000000000000000000000000000000000000000C910428279     Walton                        ???910428279     210000000000              1050157100002N
20200313C310117B000006310000001039752000000021834800000014636000000000089325000000000000000000000000000000000000000C505755598     Catana                        ???505755598     210000000000              1050146750001N
20200313C310117B000006320000000000000000000000000000000000195000000000000000000000000000000000000000000000000000000CYB1350594     Faggian                       ???YB1350594     210000000000              1050156280001N
20200313C310117B000006330000000516000000000010836000000006243600000000000000000000000000000000000000000000000000000C30709695696   GOBIERNO DE CORRIENTES        ???30709695696   210000000000              1050188340002N
20200313C310117B000006340000000000164000000000003500000000001990000000000000000000000000000000000000000000000000000C              Dafre                         ???              210000000000              1050186790001N
20200313C310117B000006350000001488500000000031258500000018010850000000000000000000000000000000000000000000000000000C              Rodriguez Brot                ???              210000000000              1050194210001N
20200313C310117B000006360000013963508000000293233700000168958450000000000000000000000000000000000000000000000000000C30999270804   TEATRO COLON - OPERA HOUSE    ???30999270804   210000000000              1050146750002N
20200313C310117B000006370000000388430000000008157000000006552500000000058500000000000000000000000000000000000000000C              Escobar                       ???              210000000000              1050146810001N
20200313C310117B000006380000000041653000000000874700000000579600000000007560000000000000000000000000000000000000000Cpa0782002     PBK FO Acosta Gondola         ???pa0782002     210000000000              1050177850001N
20200313C310118T000002720000003977000000000083517100000039770000000000000000000000000000000000000000000000000000000I565434284     Gebhardt                      ???565434284     210000000000              1050156420002N
20200313C310118T000002730000002636700000000055370700000026367000000000000000000000000000000000000000000000000000000I133389184     Rodriguez Zanella             ???133389184     210000000000              1050194980001N
20200313C310118T000002740000000682500000000014332500000006825000000000000000000000000000000000000000000000000000000I30714625167   MY BEDS                       ???30714625167   210000000000              1050188640002N
20200313C310118T000002750000002619000000000054999100000026190000000000000000000000000000000000000000000000000000000I30708474289   TOWER TRAVEL                  ???30708474289   210000000000              1050134900002N
20200313C310118T000002760000000877500000000018427500000008775000000000000000000000000000000000000000000000000000000Ig29406462     Velez                         ???g29406462     210000000000              1050190720001N
20200313C310118T000002770000004420867000000092838300000044208670000000000000000000000000000000000000000000000000000I51600002124   Expedia/Hotels.Com            ???51600002124   210000000000              1050156220002N
20200313C310118T000002780000001157000000000024297000000011570000000000000000000000000000000000000000000000000000000IP0366900      Wischenka                     ???P0366900      210000000000              1050190280002N
20200313C310118T000002790000002714250000000056999400000027142500000000000000000000000000000000000000000000000000000I33708109369   TIP GROUP TRAVEL              ???33708109369   210000000000              1050186710002N
20200313C310118T000002800000001338600000000028110700000013386000000000000000000000000000000000000000000000000000000I4990979811    Corcoran                      ???4990979811    210000000000              1050155960001N
20200313C310118T000002810000003375600000000070887600000033756000000000000000000000000000000000000000000000000000000I564023936     Gage                          ???564023936     210000000000              1050156340002N
20200313C310118T000002820000005557750000000116712800000055577500000000000000000000000000000000000000000000000000000I910428279     Walton                        ???910428279     210000000000              1050157100003N
20200313C310118T000002830000001359750000000028554800000013597500000000000000000000000000000000000000000000000000000I33708109369   TIP GROUP TRAVEL              ???33708109369   210000000000              1050164300002N
20200313C310118T000002840000001280598000000026892500000012805980000000000000000000000000000000000000000000000000000I51600002124   Expedia/Hotels.Com            ???51600002124   210000000000              1050195090002N
20200313C310118T000002850000000808185000000016971900000008081850000000000000000000000000000000000000000000000000000I50000002183   HOTEL BEDS USA INC            ???50000002183   210000000000              1050155070002N
