20200304C560120A000000050000004676250-000000982012-000005658262-000000000000-000000000000-000000000000-000000000000I33707573169   PHARMADORF                    ???33707573169   210000000000              1050189970001N
20200304C310120A000000480000004676250000000098201200000056582620000000000000000000000000000000000000000000000000000I33707573169   PHARMADORF                    ???33707573169   210000000000              1050189590001N
20200304C310120A000000490000006446108000000135368300000077997910000000000000000000000000000000000000000000000000000I30615727152   TUCANO TOURS                  ???30615727152   210000000000              1050190110001N
20200304C310117A000000710000001302099000000027344100000015755400000000000000000000000000000000000000000000000000000I30712160035   Siete Puntas Srl              ???30712160035   210000000000              1050188180002N
20200304C560117B000000100000000030744-000000006456-000000044175-000000006975-000000000000-000000000000-000000000000CPA0650787     Hanan Mendoza                 ???PA0650787     210000000000              1050160000001N
20200304C560117B000000110000000036508-000000007667-000000044175-000000000000-000000000000-000000000000-000000000000CPA0650787     Hanan Mendoza                 ???PA0650787     210000000000              1050181600003N
20200304C310120B000000330000000516000000000010836000000006243600000000000000000000000000000000000000000000000000000C30709695696   GOBIERNO DE CORRIENTES        ???30709695696   210000000000              1050189400001N
20200304C310117B000003900000000023140000000000486000000000280000000000000000000000000000000000000000000000000000000C656325423     Tompkins                      ???656325423     210000000000              1050172310001N
20200304C310117B000003910000000437190000000009181000000005483500000000000000000000000000000000000000000000000000000C              Marciuch                      ???              210000000000              1050155220001N
20200304C310117B000003920000000774000000000016254000000009365400000000000000000000000000000000000000000000000000000C28034452      Brambilla                     ???28034452      210000000000              1050154620001N
20200304C310117B000003930000000143802000000003019800000001740000000000000000000000000000000000000000000000000000000C              Hilbent                       ???              210000000000              1050154850002N
20200304C310117B000003940000000023140000000000486000000000280000000000000000000000000000000000000000000000000000000C              Itati Moreiro                 ???              210000000000              1050164460001N
20200304C310117B000003950000000000000000000000000000000000000000000000000000000000000000000000000000000000000000000CPA0650787     Hanan Mendoza                 ???PA0650787     210000000000              1050181600001Y
20200304C310117B000003960000000026033000000000546700000000382500000000006750000000000000000000000000000000000000000C109093009     Cabral Fernandez              ???109093009     210000000000              1050181590001N
20200304C310117B000003970000000030744000000000645600000000441750000000006975000000000000000000000000000000000000000CPA0650787     Hanan Mendoza                 ???PA0650787     210000000000              1050181600004N
20200304C310117B000003980000000030744000000000645600000000441750000000006975000000000000000000000000000000000000000CPA0650787     Hanan Mendoza                 ???PA0650787     210000000000              1050181600001N
20200304C310117B000003990000000272876000000005730400000003301800000000000000000000000000000000000000000000000000000C27162196001   Braillard Poccard             ???27162196001   210000000000              1050186620001N
20200304C310117B000004000000000453100000000009515100000005482510000000000000000000000000000000000000000000000000000CX932419       Rusdy                         ???X932419       210000000000              1050155380001N
20200304C310117B000004010000000037190000000000781000000000450000000000000000000000000000000000000000000000000000000C33306893      Jayaraman                     ???33306893      210000000000              1050171840001N
20200304C310117B000004020000000314050000000006595000000003800000000000000000000000000000000000000000000000000000000C              Sanchez                       ???              210000000000              1050189470001N
20200304C310117B000004030000000124793000000002620700000002123500000000022650000000000000000000000000000000000000000C1210000       Delbusto                      ???1210000       210000000000              1050154660001N
20200304C310117B000004040000000735300000000015441300000008897130000000000000000000000000000000000000000000000000000C1             Marriott Bonvoy  Reimbursement???1             210000000000              1050154660002N
20200304C310117B000004050000000014876000000000312400000000180000000000000000000000000000000000000000000000000000000C              Hoffmeyer                     ???              210000000000              1050171940001N
20200304C310117B000004060000000114876000000002412400000001546000000000015600000000000000000000000000000000000000000C556112036     Furey                         ???556112036     210000000000              1050154670001N
20200304C310117B000004070000000050826000000001067400000000615000000000000000000000000000000000000000000000000000000C556112036     Dunham                        ???556112036     210000000000              1050154680001N
20200304C310117B000004080000000033058000000000694200000000400000000000000000000000000000000000000000000000000000000C              Rosello                       ???              210000000000              1050190790001N
20200304C310117B000004090000000072727000000001527300000000985600000000010560000000000000000000000000000000000000000C0373981       Cerrud                        ???0373981       210000000000              1050177490001N
20200304C310117B000004100000000014876000000000312400000000180000000000000000000000000000000000000000000000000000000C28642177      Ugelli                        ???28642177      210000000000              1050177480001N
20200304C310118T000001820000003850650000000080863800000038506500000000000000000000000000000000000000000000000000000I              Marciuch                      ???              210000000000              1050155220002N
20200304C310118T000001830000001935000000000040635000000019350000000000000000000000000000000000000000000000000000000I30710057032   CONEXTUR                      ???30710057032   210000000000              1050155630002N
20200304C310118T000001840000003231450000000067860600000032314500000000000000000000000000000000000000000000000000000I              Hilbent                       ???              210000000000              1050154850001N
20200304C310118T000001850000000645000000000013545000000006450000000000000000000000000000000000000000000000000000000I30708474289   TOWER TRAVEL                  ???30708474289   210000000000              1050155660002N
20200304C310118T000001860000000645000000000013545000000006450000000000000000000000000000000000000000000000000000000I30708474289   TOWER TRAVEL                  ???30708474289   210000000000              1050154870002N
20200304C310118T000001870000000645000000000013545000000006450000000000000000000000000000000000000000000000000000000I30708474289   TOWER TRAVEL                  ???30708474289   210000000000              1050155650002N
20200304C310118T000001880000000645000000000013545000000006450000000000000000000000000000000000000000000000000000000I30708474289   TOWER TRAVEL                  ???30708474289   210000000000              1050154580002N
20200304C310118T000001890000002244600000000047136600000022446000000000000000000000000000000000000000000000000000000I556112036     Furey                         ???556112036     210000000000              1050154670002N
20200304C310118T000001900000000645000000000013545000000006450000000000000000000000000000000000000000000000000000000I30708474289   TOWER TRAVEL                  ???30708474289   210000000000              1050155380002N
