20200316C310117A000000950000002216032000000046536700000026813990000000000000000000000000000000000000000000000000000I20144599609   Costa                         ???20144599609   210000000000              1050190510002N
20200316C310117A000000960000001488500000000031258500000018010850000000000000000000000000000000000000000000000000000I30586661716   OSDEPYM                       ???30586661716   210000000000              1050188230002N
20200316C310117A000000970000000314050000000006595000000003894210000000000000000000000000000000000000000000000009421I30709847771   Felder Fernando y Felder Marce???30709847771   210000000000              1050204770001N
20200316C310120B000000460000000780000000000016380000000009438000000000000000000000000000000000000000000000000000000C55000002126   Cellebrite Inc                ???55000002126   210000000000              1050204400001N
20200316C310120B000000470000017322500000000363772500000209602250000000000000000000000000000000000000000000000000000C30541689474   INSTITUTO TECNOLOGICO DE BS AS???30541689474   210000000000              1050204760001N
20200316C310120B000000480000064350000000001351350000000778635000000000000000000000000000000000000000000000000000000C30541689474   INSTITUTO TECNOLOGICO DE BS AS???30541689474   210000000000              1050204760001N
20200316C310120B000000490000063700000000001337700000000770770000000000000000000000000000000000000000000000000000000C30541689474   INSTITUTO TECNOLOGICO DE BS AS???30541689474   210000000000              1050204760001N
20200316C310120B000000500000021450000000000450450000000259545000000000000000000000000000000000000000000000000000000C30541689474   INSTITUTO TECNOLOGICO DE BS AS???30541689474   210000000000              1050204760001N
20200316C310117B000000970000003839752000000080634800000046461000000000000000000000000000000000000000000000000000000C30709847771   Felder Fernando y Felder Marce???30709847771   210000000000              1050204770001N
20200316C310117B000006850000000034314000000000720600000000415200000000000000000000000000000000000000000000000000000CYA9398585     Colombo                       ???YA9398585     210000000000              1050179720001N
20200316C310117B000006860000000122314000000002568600000001702000000000022200000000000000000000000000000000000000000C955463        Benitez De Semeniuk           ???955463        210000000000              1050203100001N
20200316C310117B000006870000000245455000000005154500000003415500000000044550000000000000000000000000000000000000000C534850296     Miller                        ???534850296     210000000000              1050164280002N
20200316C310117B000006880000000069421000000001457900000000840000000000000000000000000000000000000000000000000000000CHN114674      Patel                         ???HN114674      210000000000              1050166150002N
20200316C310117B000006890000000023140000000000486000000000280000000000000000000000000000000000000000000000000000000C491211570     Shin                          ???491211570     210000000000              1050204220002N
20200316C310117B000006900000000462810000000009719000000005600000000000000000000000000000000000000000000000000000000C              Sindicato del Seguro          ???              210000000000              1050204750001N
20200316C310117B000006910000000788017000000016548300000009758500000000022350000000000000000000000000000000000000000CC1TG3M3R6     Kreidel                       ???C1TG3M3R6     210000000000              1050204120002N
20200316C310117B000006920000003237900000000067995900000039178590000000000000000000000000000000000000000000000000000C              Farias                        ???              210000000000              1050172450001N
20200316C310117B000006930000000020661000000000433900000000250000000000000000000000000000000000000000000000000000000C              Parking                       ???              210000000000              1050204840001N
20200316C560118T000000010000000000000-000000000000-000000000000-000000000000-000000000000-000000000000-000000000000I16CT38249     Rolland                       ???16CT38249     210000000000              1050200000001Y
20200316C310121T000000250000001344000000000028224000000013440000000000000000000000000000000000000000000000000000000I30714625167   MY BEDS                       ???30714625167   210000000000              1050193660002N
20200316C310118T000003200000000942955000000019802100000009624550000000000000000000000000000000000000000000000000000I209813123     Johansen                      ???209813123     210000000000              1050157540001N
20200316C310118T000003210000002018964000000042398300000020189640000000000000000000000000000000000000000000000000000I51600002124   Expedia/Hotels.Com            ???51600002124   210000000000              1050203100002N
20200316C310118T000003220000004058450000000085227400000040584500000000000000000000000000000000000000000000000000000I534850296     Miller                        ???534850296     210000000000              1050164280001N
20200316C310118T000003230000001332500000000027982500000013422500000000000000000000000000000000000000000000000000000IHN114674      Patel                         ???HN114674      210000000000              1050166150001N
20200316C310118T000003240000001293500000000027163500000012935000000000000000000000000000000000000000000000000000000I491211570     Shin                          ???491211570     210000000000              1050204220001N
20200316C310118T000003250000000000000000000000000000000000000000000000000000000000000000000000000000000000000000000I16CT38249     Rolland                       ???16CT38249     210000000000              1050155320001Y
20200316C310118T000003260000006740250000000141545500000067402500000000000000000000000000000000000000000000000000000I50000004380   Mercedes Benz AG Werk 019     ???50000004380   210000000000              1050155320002N
20200316C310118T000003270000002885000000000060585000000029240000000000000000000000000000000000000000000000000000000IC1TG3M3R6     Kreidel                       ???C1TG3M3R6     210000000000              1050204120001N
20200316C310118T000003280000001365000000000028665000000013650000000000000000000000000000000000000000000000000000000I33708109369   TIP GROUP TRAVEL              ???33708109369   210000000000              1050157250002N
