20200301C310117A000000570000002646888000000055584600000032027340000000000000000000000000000000000000000000000000000I30707210210   HOTELDO.COM                   ???30707210210   210000000000              1050182970002N
20200301C310117A000000580000003375750000000070890800000040846580000000000000000000000000000000000000000000000000000I30683372583   VIAJES MELYTOUR               ???30683372583   210000000000              1050148020002N
20200301C310117A000000590000000677250000000014222300000008194730000000000000000000000000000000000000000000000000000I30714625167   MY BEDS                       ???30714625167   210000000000              1050154000002N
20200301C310117A000000600000003375750000000070890800000040846580000000000000000000000000000000000000000000000000000I30714625167   MY BEDS                       ???30714625167   210000000000              1050148160002N
20200301C560117B000000090000000000000-000000000000-000000000000-000000000000-000000000000-000000000000-000000000000C30561033885   Viajes Apolo                  ???30561033885   210000000000              1050150000002Y
20200301C310117B000003420000000258000000000005418000000003121800000000000000000000000000000000000000000000000000000C30714330442   Ministro De Turismo De Corrien???30714330442   210000000000              1050144980002N
20200301C310117B000003430000000639669000000013433100000007740000000000000000000000000000000000000000000000000000000C              Enriquez -Ominami Gumucio     ???              210000000000              1050182970001N
20200301C310117B000003440000000416942000000008755800000005534000000000048900000000000000000000000000000000000000000CPAE826637     Arias Alvarez                 ???PAE826637     210000000000              1050148020004N
20200301C310117B000003450000000403306000000008469400000004880000000000000000000000000000000000000000000000000000000C485315941     Wernick                       ???485315941     210000000000              1050149230002N
20200301C310117B000003460000000392562000000008243800000004750000000000000000000000000000000000000000000000000000000C561850441     Levine                        ???561850441     210000000000              1050148830002N
20200301C310117B000003470000000264876000000005562400000003205000000000000000000000000000000000000000000000000000000C548252394     Downing                       ???548252394     210000000000              1050153020001N
20200301C310117B000003480000000095455000000002004500000001275750000000012075000000000000000000000000000000000000000CAB660099      Lee                           ???AB660099      210000000000              1050153210003N
20200301C310117B000003490000000735620000000015448000000008901000000000000000000000000000000000000000000000000000000C              Shrader                       ???              210000000000              1050155510001N
20200301C310117B000003500000000367810000000007724000000004450500000000000000000000000000000000000000000000000000000C              Shrader                       ???              210000000000              1050155550001N
20200301C310117B000003510000000047975000000001007500000000580500000000000000000000000000000000000000000000000000000Cfp496934      Vieira-De-Moraes              ???fp496934      210000000000              1050151650001N
20200301C310117B000003520000000000000000000000000000000000000000000000000000000000000000000000000000000000000000000C30561033885   Viajes Apolo                  ???30561033885   210000000000              1050151650002Y
20200301C310117B000003530000001215617000000025528000000014708970000000000000000000000000000000000000000000000000000C              Naccarato                     ???              210000000000              1050166540001N
20200301C310117B000003540000001504749000000031599700000018207460000000000000000000000000000000000000000000000000000C33207429      Sanjiao                       ???33207429      210000000000              1050154300001N
20200301C310117B000003550000000732645000000015385500000009300750000000043575000000000000000000000000000000000000000C              Biorci                        ???              210000000000              1050137180001N
20200301C310117B000003560000000065124000000001367600000000929000000000014100000000000000000000000000000000000000000Cpa3513514     PBK TC Malca                  ???pa3513514     210000000000              1050154210001N
20200301C310118T000001430000001128750000000023703800000011287500000000000000000000000000000000000000000000000000000I548962450     Carroll                       ???548962450     210000000000              1050153830001N
20200301C310118T000001440000002029125000000042611700000020291250000000000000000000000000000000000000000000000000000I33708109369   TIP GROUP TRAVEL              ???33708109369   210000000000              1050171750002N
20200301C310118T000001450000000677250000000014222300000006772500000000000000000000000000000000000000000000000000000I33708109369   TIP GROUP TRAVEL              ???33708109369   210000000000              1050154010002N
20200301C310118T000001460000003540340000000074347100000035403400000000000000000000000000000000000000000000000000000I485315941     Wernick                       ???485315941     210000000000              1050149230001N
20200301C310118T000001470000003540340000000074347100000035403400000000000000000000000000000000000000000000000000000I561850441     Levine                        ???561850441     210000000000              1050148830001N
20200301C310118T000001480000001354500000000028444600000013545000000000000000000000000000000000000000000000000000000I30710057032   CONEXTUR                      ???30710057032   210000000000              1050153020002N
20200301C310118T000001490000002169910000000045568000000021699100000000000000000000000000000000000000000000000000000IHH344018      Kraska                        ???HH344018      210000000000              1050153200001N
20200301C310118T000001500000001974860000000041472000000019748600000000000000000000000000000000000000000000000000000IFP1173194     Repo                          ???FP1173194     210000000000              1050153310001N
20200301C310118T000001510000000000000000000000000000000000000000000000000000000000000000000000000000000000000000000I30707880143   QUALITY TRAVEL                ???30707880143   210000000000              1050149220002Y
20200301C310118T000001520000002194290000000046080000000021942900000000000000000000000000000000000000000000000000000IAB660099      Lee                           ???AB660099      210000000000              1050153210001N
20200301C310118T000001530000002194290000000046080000000021942900000000000000000000000000000000000000000000000000000IC4YLV254V     Dixa                          ???C4YLV254V     210000000000              1050153010001N
20200301C310118T000001540000003370040000000070770900000033700400000000000000000000000000000000000000000000000000000I51600002124   Expedia/Hotels.Com            ???51600002124   210000000000              1050148390002N
20200301C310118T000001550000009010356000000189217400000090103560000000000000000000000000000000000000000000000000000I676098        Gamarra                       ???676098        210000000000              1050148200001N
20200301C310118T000001560000002838936000000059617800000028389360000000000000000000000000000000000000000000000000000I50000000026   TRAVEL RESERVATION SRL        ???50000000026   210000000000              1050172610002N
