20200315C310117A000000940000002714400000000057002400000032844240000000000000000000000000000000000000000000000000000I30707210210   HOTELDO.COM                   ???30707210210   210000000000              1050156630002N
20200315C310117B000006670000000103802000000002179800000001444400000000018840000000000000000000000000000000000000000C11156         Pereira                       ???11156         210000000000              1050179650001N
20200315C310117B000006680000000160000000000003360000000002226400000000029040000000000000000000000000000000000000000C464407        Goon                          ???464407        210000000000              1050179660001N
20200315C310117B000006690000001300000000000027300000000015756000000000000000000000000000000000000000000000000002600C30688020715   J.C.R. S.A.                   ???30688020715   210000000000              1050182920002N
20200315C310117B000006700000000387000000000008127000000004682700000000000000000000000000000000000000000000000000000C505462853     Nave                          ???505462853     210000000000              1050178690002N
20200315C310117B000006710000000000000000000000000000000003114000000000000000000000000000000000000000000000000000000C505462853     Nave                          ???505462853     210000000000              1050178690001N
20200315C310117B000006720000000393678000000008267200000005167000000000040350000000000000000000000000000000000000000C566451106     Metheny                       ???566451106     210000000000              1050178650001N
20200315C310117B000006730000000028926000000000607400000000350000000000000000000000000000000000000000000000000000000C567577155     Chrzan                        ???567577155     210000000000              1050178710001N
20200315C310117B000006740000000080165000000001683500000001093000000000012300000000000000000000000000000000000000000C561409350     Sanchez                       ???561409350     210000000000              1050178660001N
20200315C310117B000006750000000694215000000014578500000008400000000000000000000000000000000000000000000000000000000CLK462404      Collins                       ???LK462404      210000000000              1050187670002N
20200315C310117B000006760000000010744000000000225600000002453500000000000000000000000000000000000000000000000000000CYB0008176     Rosalen                       ???YB0008176     210000000000              1050140180001N
20200315C310117B000006770000014542058000000305383200000175958900000000000000000000000000000000000000000000000000000C30999270804   TEATRO COLON - OPERA HOUSE    ???30999270804   210000000000              1050140180002N
20200315C310117B000006780000000086777000000001822300000001050000000000000000000000000000000000000000000000000000000C141490053     Paderne                       ???141490053     210000000000              1050200180001N
20200315C310117B000006790000001989000000000041769000000024066900000000000000000000000000000000000000000000000000000C              Garcia Goya                   ???              210000000000              1050200380001N
20200315C310117B000006800000000766942000000016105800000009280000000000000000000000000000000000000000000000000000000C489418498     Kaiserseder                   ???489418498     210000000000              1050156630001N
20200315C310117B000006810000000077686000000001631400000000940000000000000000000000000000000000000000000000000000000Cen401394      Goddeeris                     ???en401394      210000000000              1050204000002N
20200315C310117B000006820000001586000000000033306000000019190600000000000000000000000000000000000000000000000000000C              Dalponte                      ???              210000000000              1050192710001N
20200315C310117B000006830000000851405000000017879500000010302000000000000000000000000000000000000000000000000000000C              Lanari                        ???              210000000000              1050188380001N
20200315C310117B000006840000001269881000000026667500000015365560000000000000000000000000000000000000000000000000000CG24782506     Cruz Arroyo                   ???G24782506     210000000000              1050195480001N
20200315C310118T000003120000001625000000000034125000000016250000000000000000000000000000000000000000000000000000000ILT499886      Vogt                          ???LT499886      210000000000              1050187680001N
20200315C310118T000003130000001625000000000034125000000016250000000000000000000000000000000000000000000000000000000ILK462404      Collins                       ???LK462404      210000000000              1050187670001N
20200315C310118T000003140000003207600000000067359700000032076000000000000000000000000000000000000000000000000000000I33714943249   ESTILO PLUS                   ???33714943249   210000000000              1050156040002N
20200315C310118T000003150000005541048000000116362000000055410480000000000000000000000000000000000000000000000000000I51600002124   Expedia/Hotels.Com            ???51600002124   210000000000              1050157110002N
20200315C310118T000003160000001047150000000021990200000010666500000000000000000000000000000000000000000000000000000I506369382     Milstein                      ???506369382     210000000000              1050203210001N
20200315C310118T000003170000001714050000000035995100000017140500000000000000000000000000000000000000000000000000000Ien401394      Goddeeris                     ???en401394      210000000000              1050204000001N
20200315C310118T000003180000003653000000000076713000000036530000000000000000000000000000000000000000000000000000000IG24782506     Cruz Arroyo                   ???G24782506     210000000000              1050195480002N
20200315C310118T000003190000001345500000000028255500000014040000000000000000000000000000000000000000000000000000000I752880581     Stoyakina                     ???752880581     210000000000              1050169790001N
