20201016C560117B000000250000009984919-000002096833-000012250202-000000168450-000000000000-000000000000-000000000000C              Rimoldi                       ???              210000000000              1050237560003N
20201016C560120B000001240000001447800-000000304038-000001751838-000000000000-000000000000-000000000000-000000000000C50000002183   HOTEL BEDS USA INC            ???50000002183   210000000000              1050238270001N
20201016C560120B000001250000011011009-000002312312-000013323321-000000000000-000000000000-000000000000-000000000000C50000002183   HOTEL BEDS USA INC            ???50000002183   210000000000              1050238270001N
20201016C560120B000001260000000809599-000000170016-000000979615-000000000000-000000000000-000000000000-000000000000C50000002183   HOTEL BEDS USA INC            ???50000002183   210000000000              1050238270001N
20201016C560120B000001270000003022602-000000634746-000003657348-000000000000-000000000000-000000000000-000000000000C50000002183   HOTEL BEDS USA INC            ???50000002183   210000000000              1050238270001N
20201016C560120B000001280000000723900-000000152019-000000875919-000000000000-000000000000-000000000000-000000000000C50000002183   HOTEL BEDS USA INC            ???50000002183   210000000000              1050238270001N
20201016C560120B000001290000000900126-000000189026-000001089152-000000000000-000000000000-000000000000-000000000000C50000002183   HOTEL BEDS USA INC            ???50000002183   210000000000              1050238270001N
20201016C560120B000001300000000981049-000000206020-000001187069-000000000000-000000000000-000000000000-000000000000C50000002183   HOTEL BEDS USA INC            ???50000002183   210000000000              1050238270001N
20201016C310117B000007290000009984919000000209683300000122502020000000168450000000000000000000000000000000000000000C              Rimoldi                       ???              210000000000              1050237560003N
20201016C310117B000007300000001709917000000035908300000022374500000000168450000000000000000000000000000000000000000CAC122598      Martinez                      ???AC122598      210000000000              1050237560002N
20201016C310121T000001790000001447800000000030403800000014478000000000000000000000000000000000000000000000000000000I50000002183   HOTEL BEDS USA INC            ???50000002183   210000000000              1050238270001N
20201016C310121T000001800000011011009000000231231200000110110090000000000000000000000000000000000000000000000000000I50000002183   HOTEL BEDS USA INC            ???50000002183   210000000000              1050238270001N
20201016C310121T000001810000000809599000000017001600000008095990000000000000000000000000000000000000000000000000000I50000002183   HOTEL BEDS USA INC            ???50000002183   210000000000              1050238270001N
20201016C310121T000001820000003022602000000063474600000030226020000000000000000000000000000000000000000000000000000I50000002183   HOTEL BEDS USA INC            ???50000002183   210000000000              1050238270001N
20201016C310121T000001830000000723900000000015201900000007239000000000000000000000000000000000000000000000000000000I50000002183   HOTEL BEDS USA INC            ???50000002183   210000000000              1050238270001N
20201016C310121T000001840000000900126000000018902600000009001260000000000000000000000000000000000000000000000000000I50000002183   HOTEL BEDS USA INC            ???50000002183   210000000000              1050238270001N
20201016C310121T000001850000000981049000000020602000000009810490000000000000000000000000000000000000000000000000000I50000002183   HOTEL BEDS USA INC            ???50000002183   210000000000              1050238270001N
20201016C310118T000003420000008275002000000173775000000082750020000000000000000000000000000000000000000000000000000IAC122598      Martinez                      ???AC122598      210000000000              1050237560005N
