20200306C560120A000000060000001631300-000000342573-000001973873-000000000000-000000000000-000000000000-000000000000I30715702726   PANA CIGARS SRL               ???30715702726   210000000000              1050194140001N
20200306C310120A000000520000001631300000000034257300000019738730000000000000000000000000000000000000000000000000000I30715702726   PANA CIGARS SRL               ???30715702726   210000000000              1050192630001N
20200306C310120A000000530000000387000000000008127000000004682700000000000000000000000000000000000000000000000000000I30697997071   National Shipping             ???30697997071   210000000000              1050193700001N
20200306C310117A000000760000001348050000000028309000000016311410000000000000000000000000000000000000000000000000000I20118061722   Gatti                         ???20118061722   210000000000              1050190350001N
20200306C310117A000000770000000516000000000010836000000006243600000000000000000000000000000000000000000000000000000I30716445522   Nicos S.A.S                   ???30716445522   210000000000              1050186670002N
20200306C310117B000000760000000666750000000014001800000008067680000000000000000000000000000000000000000000000000000C20118061722   Gatti                         ???20118061722   210000000000              1050190350001N
20200306C310117B000004330000000000000000000000000000000000387000000000000000000000000000000000000000000000000000000C              Jauch                         ???              210000000000              1050155050001N
20200306C310117B000004340000000511983000000010751700000006908250000000071325000000000000000000000000000000000000000C540235620     Syms                          ???540235620     210000000000              1050165110001N
20200306C310117B000004350000000000000000000000000000000000000000000000000000000000000000000000000000000000000000000C20118061722   Gatti                         ???20118061722   210000000000              1050190350001Y
20200306C310117B000004360000001064250000000022349300000012877430000000000000000000000000000000000000000000000000000C17875993      Altamiranda                   ???17875993      210000000000              1050191260001N
20200306C310117B000004370000000000000000000000000000000000000000000000000000000000000000000000000000000000000000000C53394045      Moir                          ???53394045      210000000000              1050155250001Y
20200306C310117B000004380000000609917000000012808300000007737750000000006750000000000000000000000000000000000000000C              Kroeger                       ???              210000000000              1050154980001N
20200306C310117B000004390000000735300000000015441300000008897130000000000000000000000000000000000000000000000000000C1             Marriott Bonvoy  Reimbursement???1             210000000000              1050154980002N
20200306C310117B000004400000000085124000000001787600000001030000000000000000000000000000000000000000000000000000000CPA254789      Kroeger                       ???PA254789      210000000000              1050190300002N
20200306C310117B000004410000000000000000000000000000000000193500000000000000000000000000000000000000000000000000000Cyb6361817     Pola                          ???yb6361817     210000000000              1050155350001N
20200306C310117B000004420000000000000000000000000000000000193500000000000000000000000000000000000000000000000000000Cyb6661639     Dilullo                       ???yb6661639     210000000000              1050154710001N
20200306C310117B000004430000000000019000000000000400000000193730000000000000000000000000000000000000000000000000000Cya5517295     Pazzaglini                    ???ya5517295     210000000000              1050155340001N
20200306C310117B000004440000000309091000000006490900000003740000000000000000000000000000000000000000000000000000000C512266105     Crane                         ???512266105     210000000000              1050173390001N
20200306C310117B000004450000000359504000000007549600000006448500000000035700000000000000000000000000000000000000000C4565661       Benitez de Cardozo            ???4565661       210000000000              1050170460003N
20200306C310117B000004460000001177417000000024725800000014438750000000019200000000000000000000000000000000000000000C              Tapia                         ???              210000000000              1050193380001N
20200306C310117B000004470000000352479000000007402100000004265000000000000000000000000000000000000000000000000000000CHG135352      Law                           ???HG135352      210000000000              1050173270001N
20200306C310117B000004480000000413223000000008677700000005000000000000000000000000000000000000000000000000000000000C528226959     Nieves                        ???528226959     210000000000              1050173400001N
20200306C310117B000004490000000870750000000018285800000010536080000000000000000000000000000000000000000000000000000C              Centurion                     ???              210000000000              1050134920003N
20200306C310117B000004500000003483002000000073143000000042144320000000000000000000000000000000000000000000000000000C30506726804   SHELL CAPSA                   ???30506726804   210000000000              1050134920002N
20200306C310118T000001970000000709500000000014899500000007095000000000000000000000000000000000000000000000000000000I30661960066   SOUTH AMERICAN TOURS DE ARGENT???30661960066   210000000000              1050155050002N
20200306C310118T000001980000000709500000000014899500000007095000000000000000000000000000000000000000000000000000000I30661960066   SOUTH AMERICAN TOURS DE ARGENT???30661960066   210000000000              1050155590002N
20200306C310118T000001990000002031750000000042666900000020317500000000000000000000000000000000000000000000000000000I33708109369   TIP GROUP TRAVEL              ???33708109369   210000000000              1050165110002N
20200306C310118T000002000000002296200000000048220200000022962000000000000000000000000000000000000000000000000000000IPA254789      Kroeger                       ???PA254789      210000000000              1050190300001N
20200306C310118T000002010000008204400000000172292400000082044000000000000000000000000000000000000000000000000000000I4565661       Benitez de Cardozo            ???4565661       210000000000              1050170460001N
