20200319C310120B000000520000001339000000000028119000000016201900000000000000000000000000000000000000000000000000000C30541689474   INSTITUTO TECNOLOGICO DE BS AS???30541689474   210000000000              1050205720001N
20200319C310120B000000530000004132231000000086776900000050000000000000000000000000000000000000000000000000000000000C30652284163   EOL - ESCUELA DE ORIENTACION L???30652284163   210000000000              1050205980001N
20200319C310117B000007090000000055537000000001166300000000672000000000000000000000000000000000000000000000000000000C              Miranda                       ???              210000000000              1050182230001N
20200319C310117B000007100000000177686000000003731400000002150000000000000000000000000000000000000000000000000000000C4990979811    Corcoran                      ???4990979811    210000000000              1050157340001N
20200319C310117B000007110000000897000000000018837000000010853700000000000000000000000000000000000000000000000000000C4990979811    Corcoran                      ???4990979811    210000000000              1050157340002N
20200319C310117B000007120000000023140000000000486000000000280000000000000000000000000000000000000000000000000000000CPA0403721     TC perez                      ???PA0403721     210000000000              1050178100001N
20200319C310121T000000310000025977600000000545530400000259776000000000000000000000000000000000000000000000000000000I33714943249   ESTILO PLUS                   ???33714943249   210000000000              1050132630004N
20200319C310121T000000320000034087075000000715830700000340870750000000000000000000000000000000000000000000000000000I33714943249   ESTILO PLUS                   ???33714943249   210000000000              1050132630005N
