20200309C310122A000000020000074820000000001571220000000905322000000000000000000000000000000000000000000000000000000I30501596082   LAB CASASCO SAIC              ???30501596082   210000000000              1050195370001N
20200309C560120A000000070000075307748-000015814627-000091122375-000000000000-000000000000-000000000000-000000000000I30707287477   Ricaar SRL                    ???30707287477   210000000000              1050195470001N
20200309C310120A000000540000090979649000001910572600001100853750000000000000000000000000000000000000000000000000000I30707287477   Ricaar SRL                    ???30707287477   210000000000              1050195310001N
20200309C560120B000000060000027090000-000005688900-000032778900-000000000000-000000000000-000000000000-000000000000C55000002126   Cellebrite Inc                ???55000002126   210000000000              1050195920001N
20200309C310120B000000360000027090000000000568890000000327789000000000000000000000000000000000000000000000000000000C55000002126   Cellebrite Inc                ???55000002126   210000000000              1050195910001N
20200309C310120B000000370000027090000000000568890000000327789000000000000000000000000000000000000000000000000000000C55000002126   Cellebrite Inc                ???55000002126   210000000000              1050196120001N
20200309C310117B000004930000000197934000000004156600000002731750000000033675000000000000000000000000000000000000000C524835541     Lowe                          ???524835541     210000000000              1050155020002N
20200309C310117B000004940000000012397000000000260300000000150000000000000000000000000000000000000000000000000000000C              Caramangiu                    ???              210000000000              1050170570001N
20200309C310117B000004950000000041322000000000867800000000500000000000000000000000000000000000000000000000000000000C              Vara                          ???              210000000000              1050186690001N
20200309C310117B000004960000000026983000000000566700000000520000000000000000000000000000000000000000000000000000000C384589872     Radulov                       ???384589872     210000000000              1050170580001N
20200309C310117B000004970000000967500000000020317500000011706750000000000000000000000000000000000000000000000000000C              Alvarez                       ???              210000000000              1050191920002N
20200309C310117B000004980000000206612000000004338800000002500000000000000000000000000000000000000000000000000000000C555663589     Chang                         ???555663589     210000000000              1050179110001N
20200309C310117B000004990000000272727000000005727300000003300000000000000000000000000000000000000000000000000000000C505800663     Yang                          ???505800663     210000000000              1050179100002N
20200309C310117B000005000000000123140000000002586000000001490000000000000000000000000000000000000000000000000000000C537722707     Siu                           ???537722707     210000000000              1050178950001N
20200309C310117B000005010000000093388000000001961200000001272500000000014250000000000000000000000000000000000000000C529773482     Pritzos                       ???529773482     210000000000              1050179140001N
20200309C310117B000005020000000219008000000004599200000002672500000000002250000000000000000000000000000000000000000C504021953     Li                            ???504021953     210000000000              1050179090001N
20200309C310117B000005030000000035537000000000746300000000430000000000000000000000000000000000000000000000000000000C577811088     Virdee                        ???577811088     210000000000              1050179120001N
20200309C310117B000005040000000074380000000001562000000000900000000000000000000000000000000000000000000000000000000C493618634     Li                            ???493618634     210000000000              1050178970001N
20200309C310117B000005050000000000000000000000000000000000580500000000000000000000000000000000000000000000000000000C274182166     Faciolo                       ???274182166     210000000000              1050177060001N
20200309C310117B000005060000001439256000000030224400000017415000000000000000000000000000000000000000000000000000000C123           PBK Pinho Abegao              ???123           210000000000              1050173650001N
20200309C310117B000005070000001257769000000026413100000015219000000000000000000000000000000000000000000000000000000C577401830     Scaramozza                    ???577401830     210000000000              1050155640002N
20200309C310117B000005080000000033058000000000694200000000400000000000000000000000000000000000000000000000000000000C              Rosello                       ???              210000000000              1050195830001N
20200309C310117B000005090000000239256000000005024400000002895000000000000000000000000000000000000000000000000000000C499775939     Sutton                        ???499775939     210000000000              1050179150001N
20200309C310117B000005100000000049587000000001041300000000987000000000000000000000000000000000000000000000000000000CC6L18WV4W     Brose                         ???C6L18WV4W     210000000000              1050155980001N
20200309C310117B000005110000003332231000000069976900000040320000000000000000000000000000000000000000000000000000000C              Gonzales Quispe               ???              210000000000              1050182870001N
20200309C310117B000005120000001290000000000027090000000015802500000000000000000000000000000000000000000000000000000CC8WKRHN7F     Sollner                       ???C8WKRHN7F     210000000000              1050156960001N
20200309C310117B000005130000001741501000000036571500000021265660000000000000000000000000000000000000000000000000000CFR169139      Costa                         ???FR169139      210000000000              1050165020001N
20200309C310117B000005140000000532125000000011174600000006438710000000000000000000000000000000000000000000000000000C34286962      Linares                       ???34286962      210000000000              1050156510001N
20200309C310117B000005150000001741501000000036571500000021265660000000000000000000000000000000000000000000000000000Ck625273       Vargas                        ???k625273       210000000000              1050163140001N
20200309C310118T000002220000002025300000000042531400000020253000000000000000000000000000000000000000000000000000000I524835541     Lowe                          ???524835541     210000000000              1050155020001N
20200309C310118T000002230000001354500000000028444600000013545000000000000000000000000000000000000000000000000000000I33708109369   TIP GROUP TRAVEL              ???33708109369   210000000000              1050170580002N
20200309C310118T000002240000001864050000000039145100000018640500000000000000000000000000000000000000000000000000000IG24782506     Cruz Arroyo                   ???G24782506     210000000000              1050195020001N
20200309C310118T000002250000008081850000000169719200000080818500000000000000000000000000000000000000000000000000000I577401830     Scaramozza                    ???577401830     210000000000              1050155640001N
20200309C310118T000002260000001573800000000033049800000015738000000000000000000000000000000000000000000000000000000I64512559      Akhtar                        ???64512559      210000000000              1050155880001N
