20200320C560117B000000210000000000000-000000000000-000000000000-000000000000-000000000000-000000000000-000000000000CEM8250906     Nowak                         ???EM8250906     210000000000              1050330000002Y
20200320C310117B000007130000000000000000000000000000000000000000000000000000000000000000000000000000000000000000000CEM8250906     Nowak                         ???EM8250906     210000000000              1050157780002Y
20200320C310117B000007140000001172314000000024618600000015478750000000129375000000000000000000000000000000000000000C532695746     Young                         ???532695746     210000000000              1050157220002N
20200320C310117B000007150000000420248000000008825200000005085000000000000000000000000000000000000000000000000000000CEM8250906     Nowak                         ???EM8250906     210000000000              1050157780002N
20200320C310118T000003360000006850800000000143866900000068508000000000000000000000000000000000000000000000000000000IEM8250906     Nowak                         ???EM8250906     210000000000              1050157780001N
20200320C310118T000003370000013996500000000293926600000140746500000000000000000000000000000000000000000000000000000I532695746     Young                         ???532695746     210000000000              1050157220001N
