20200310C560122A000000010000010901033-000002289217-000013190250-000000000000-000000000000-000000000000-000000000000I30501596082   LAB CASASCO SAIC              ???30501596082   210000000000              1050197360001N
20200310C310122A000000030000010901033000000228921700000131902500000000000000000000000000000000000000000000000000000I30501596082   LAB CASASCO SAIC              ???30501596082   210000000000              1050197330001N
20200310C310122A000000040000013190250000000276995200000159602020000000000000000000000000000000000000000000000000000I30501596082   LAB CASASCO SAIC              ???30501596082   210000000000              1050197380001N
20200310C560120A000000080000017145000-000003600450-000020745450-000000000000-000000000000-000000000000-000000000000I30707539212   LADEVI EDICIONES              ???30707539212   210000000000              1050199120001N
20200310C310120A000000550000017145000000000360045000000207454500000000000000000000000000000000000000000000000000000I30707539212   Sistemas Comunicacionales S.A ???30707539212   210000000000              1050199080001N
20200310C310120A000000560000017145000000000360045000000207454500000000000000000000000000000000000000000000000000000I30707539212   Sistemas Comunicacionales S.A ???30707539212   210000000000              1050199100001N
20200310C310117A000000800000000314050000000006595000000003800000000000000000000000000000000000000000000000000000000I20263166133   Salgado                       ???20263166133   210000000000              1050198470001N
20200310C560120B000000070000015346736-000003222814-000018569550-000000000000-000000000000-000000000000-000000000000C55000002258   ANU AND BAR OLYMPIC COMMONWEAL???55000002258   210000000000              1050199280001N
20200310C310120B000000380000014174008000000297654200000171505500000000000000000000000000000000000000000000000000000C55000002339   DOMINICA OLYMPICCOMITTEE INC  ???55000002339   210000000000              1050196940001N
20200310C310120B000000390000015346736000000322281400000185695500000000000000000000000000000000000000000000000000000C55000002258   ANU AND BAR OLYMPIC COMMONWEAL???55000002258   210000000000              1050199230001N
20200310C310120B000000400000113642603000002386494700001375075500000000000000000000000000000000000000000000000000000C	55000002215  COMITE OLIMPICO DE PR INC     ???	55000002215  210000000000              1050199250001N
20200310C310120B000000410000015480000000000325080000000187308000000000000000000000000000000000000000000000000000000C55000002258   ANU AND BAR OLYMPIC COMMONWEAL???55000002258   210000000000              1050199270001N
20200310C310117B000005160000000336364000000007063600000005618000000000000000000000000000000000000000000000000000000C655161052     Bradford                      ???655161052     210000000000              1050154480001N
20200310C310117B000005170000000000000000000000000000000000193500000000000000000000000000000000000000000000000000000C              Jauch                         ???              210000000000              1050156550001N
20200310C310117B000005180000000980400000000020588400000011862840000000000000000000000000000000000000000000000000000C1             Marriott Bonvoy  Reimbursement???1             210000000000              1050154490002N
20200310C310117B000005190000000980400000000020588400000011862840000000000000000000000000000000000000000000000000000C1             Marriott Bonvoy  Reimbursement???1             210000000000              1050154480002N
20200310C310117B000005200000000000000000000000000000000000193500000000000000000000000000000000000000000000000000000CC722X097H     Stork                         ???C722X097H     210000000000              1050156990001N
20200310C310117B000005210000000061983000000001301700000001717500000000000000000000000000000000000000000000000000000CYD069549      Carvalho                      ???YD069549      210000000000              1050154470001N
20200310C310117B000005220000000017355000000000364500000000210000000000000000000000000000000000000000000000000000000C              TC Stangl De Luna             ???              210000000000              1050157120001N
20200310C310117B000005230000000037190000000000781000000000450000000000000000000000000000000000000000000000000000000C              Meier                         ???              210000000000              1050156700001N
20200310C310117B000005240000000023140000000000486000000000280000000000000000000000000000000000000000000000000000000C              PBK CP Evans Rubio            ???              210000000000              1050177670001N
20200310C310117B000005250000000054132000000001136800000000821500000000006975000000000000000000000000000000000000000C              Monteiro                      ???              210000000000              1050194600001N
20200310C310117B000005260000000000000000000000000000000000387000000000000000000000000000000000000000000000000000000CC7393LPH6     Wiatrek                       ???C7393LPH6     210000000000              1050157130001N
20200310C310117B000005270000000258000000000005418000000003121800000000000000000000000000000000000000000000000000000C              Vara                          ???              210000000000              1050195440001N
20200310C310117B000005280000000426446000000008955400000005284500000000012450000000000000000000000000000000000000000C              Del Mar Serra Pesquer         ???              210000000000              1050172430001N
20200310C310117B000005290000000000000000000000000000000000193500000000000000000000000000000000000000000000000000000CC776FTOYO     Schmitt                       ???C776FTOYO     210000000000              1050157010001N
20200310C310117B000005300000000000000000000000000000000000096750000000000000000000000000000000000000000000000000000CC3HZ2MXVY     Drzymala                      ???C3HZ2MXVY     210000000000              1050156260001N
20200310C310117B000005310000000095868000000002013200000001160000000000000000000000000000000000000000000000000000000C              Carlini                       ???              210000000000              1050155950001N
20200310C310117B000005320000000085289000000001791100000001032000000000000000000000000000000000000000000000000000000C              Carando                       ???              210000000000              1050188340001N
20200310C310117B000005330000000272876000000005730400000003301800000000000000000000000000000000000000000000000000000C30714349763   Ministerio de Industria Trabaj???30714349763   210000000000              1050196440002N
20200310C310117B000005340000000524942000000011023800000006351800000000000000000000000000000000000000000000000000000C30709695696   GOBIERNO DE CORRIENTES        ???30709695696   210000000000              1050196130002N
20200310C310117B000005350000000040331000000000846900000000561200000000007320000000000000000000000000000000000000000CD103291       Tippmann                      ???D103291       210000000000              1050177710001N
20200310C310118T000002270000003334650000000070027700000033636750000000000000000000000000000000000000000000000000000I642424499     Nett                          ???642424499     210000000000              1050155170001N
20200310C310118T000002280000000709500000000014899500000007095000000000000000000000000000000000000000000000000000000I30661960066   SOUTH AMERICAN TOURS DE ARGENT???30661960066   210000000000              1050156550002N
20200310C310118T000002290000002425200000000050929200000024445500000000000000000000000000000000000000000000000000000I              Skelton                       ???              210000000000              1050156940001N
20200310C310118T000002300000000677250000000014222300000006772500000000000000000000000000000000000000000000000000000I30557766533   VIAJES CYNSA                  ???30557766533   210000000000              1050157040002N
20200310C310118T000002310000000709500000000014899500000007095000000000000000000000000000000000000000000000000000000I30661960066   SOUTH AMERICAN TOURS DE ARGENT???30661960066   210000000000              1050156990002N
20200310C310118T000002320000002225250000000046730500000022252500000000000000000000000000000000000000000000000000000IYD069549      Carvalho                      ???YD069549      210000000000              1050154470002N
20200310C310118T000002330000001322250000000027767300000013222500000000000000000000000000000000000000000000000000000I              Monteiro                      ???              210000000000              1050194600002N
20200310C310118T000002340000002031750000000042666900000020317500000000000000000000000000000000000000000000000000000I33708109369   TIP GROUP TRAVEL              ???33708109369   210000000000              1050172430002N
20200310C310118T000002350000002644500000000055534600000026445000000000000000000000000000000000000000000000000000000I              Carnero                       ???              210000000000              1050194440001N
20200310C310118T000002360000000709500000000014899500000007191750000000000000000000000000000000000000000000000000000I30661960066   SOUTH AMERICAN TOURS DE ARGENT???30661960066   210000000000              1050156260002N
20200310C310118T000002370000000709500000000014899500000007095000000000000000000000000000000000000000000000000000000I30661960066   SOUTH AMERICAN TOURS DE ARGENT???30661960066   210000000000              1050157010002N
