20200311C310117A000000810000004384126000000092066600000053047920000000000000000000000000000000000000000000000000000I30709118036   CERCO PUBLICIDAD              ???30709118036   210000000000              1050195340002N
20200311C560117B000000140000000000000-000000000000-000000000000-000000000000-000000000000-000000000000-000000000000C30709118036   CERCO PUBLICIDAD              ???30709118036   210000000000              1050220000002Y
20200311C310117B000005360000000071074000000001492600000000989000000000012900000000000000000000000000000000000000000Cx5588081      Hediger                       ???x5588081      210000000000              1050196240001N
20200311C310117B000005370000000839669000000017633100000010740500000000000000000000000000000000000000000000000000000C547229530     Willis                        ???547229530     210000000000              1050196150001N
20200311C310117B000005380000000245100000000005147100000002965710000000000000000000000000000000000000000000000000000C1             Marriott Bonvoy  Reimbursement???1             210000000000              1050156810002N
20200311C310117B000005390000000192562000000004043800000002717000000000000000000000000000000000000000000000000000000C546257336     Watling                       ???546257336     210000000000              1050157160001N
20200311C310117B000005400000000014876000000000312400000000180000000000000000000000000000000000000000000000000000000CEG7085273     Slowinski                     ???EG7085273     210000000000              1050189680001N
20200311C310117B000005410000000000000000000000000000000000000000000000000000000000000000000000000000000000000000000C30709118036   CERCO PUBLICIDAD              ???30709118036   210000000000              1050195340002Y
20200311C310117B000005420000000000000000000000000000000001064250000000000000000000000000000000000000000000000000000CED9175652     Michalowicz                   ???ED9175652     210000000000              1050189710002N
20200311C310117B000005430000000029752000000000624800000000360000000000000000000000000000000000000000000000000000000C              Herrera                       ???              210000000000              1050195340001N
20200311C310117B000005440000000118182000000002481800000001430000000000000000000000000000000000000000000000000000000CAQ745931      Camacho                       ???AQ745931      210000000000              1050199580001N
20200311C310117B000005450000000121570000000002553000000001925500000000006750000000000000000000000000000000000000000C519300182     Dexter                        ???519300182     210000000000              1050156240001N
20200311C310117B000005460000000261983000000005501700000003170000000000000000000000000000000000000000000000000000000C518115596     Bleek                         ???518115596     210000000000              1050156000002N
20200311C310117B000005470000000195045000000004096000000002940550000000000000000000000000000000000000000000000000000CC6XZ7FR70     Brose                         ???C6XZ7FR70     210000000000              1050155990001N
20200311C310117B000005480000000000000000000000000000000000193500000000000000000000000000000000000000000000000000000CYB6519534     Pagano                        ???YB6519534     210000000000              1050156850001N
20200311C310117B000005490000000516000000000010836000000006243600000000000000000000000000000000000000000000000000000C28034452      Brambilla                     ???28034452      210000000000              1050178600001N
20200311C310117B000005500000000000000000000000000000000000193500000000000000000000000000000000000000000000000000000CAAI5128691    Calabuig Garcia               ???AAI5128691    210000000000              1050183680001N
20200311C310117B000005510000000364256000000007649400000004601000000000000000000000000000000000000000000000000000000CPAB874094     VALLS-COMA                    ???PAB874094     210000000000              1050183660001N
20200311C310117B000005520000000114876000000002412400000001598500000000020850000000000000000000000000000000000000000CFR169139      Costa                         ???FR169139      210000000000              1050165020003N
20200311C310117B000005530000000024793000000000520700000000300000000000000000000000000000000000000000000000000000000CG16831089     Bustos Ramirez                ???G16831089     210000000000              1050166170002N
20200311C310117B000005540000000067355000000001414500000001130750000000012225000000000000000000000000000000000000000C              Velez                         ???              210000000000              1050190710001N
20200311C310117B000005550000001290000000000027090000000015609000000000000000000000000000000000000000000000000000000C30685341472   UNION CIVICA RADICAL          ???30685341472   210000000000              1050196460002N
20200311C310117B000005560000000127273000000002672700000001724500000000018450000000000000000000000000000000000000000C26592989      Herrera                       ???26592989      210000000000              1050156330001N
20200311C310117B000005570000001614771000000033910200000019538730000000000000000000000000000000000000000000000000000C              Carlini                       ???              210000000000              1050155950003N
20200311C310117B000005580000000000164000000000003500000000001990000000000000000000000000000000000000000000000000000CYB2892395     Scopazzo                      ???YB2892395     210000000000              1050189330001N
20200311C310117B000005590000001952280000000040997900000023622590000000000000000000000000000000000000000000000000000C26592989      Herrera                       ???26592989      210000000000              1050156330003N
20200311C310117B000005600000000000000000000000000000000000387000000000000000000000000000000000000000000000000000000C491180822     Feibush                       ???491180822     210000000000              1050156250001N
20200311C310117B000005610000001094773000000022990200000013438750000000019200000000000000000000000000000000000000000C              Tapia                         ???              210000000000              1050198900001N
20200311C310117B000005620000000119008000000002499200000001440000000000000000000000000000000000000000000000000000000C597506259     Cialone                       ???597506259     210000000000              1050155910001N
20200311C310117B000005630000000490200000000010294200000005931420000000000000000000000000000000000000000000000000000C1             Marriott Bonvoy  Reimbursement???1             210000000000              1050155910002N
20200311C310117B000005640000000047934000000001006600000000580000000000000000000000000000000000000000000000000000000C384589872     Radulov                       ???384589872     210000000000              1050199320002N
20200311C310117B000005650000001944268000000040829600000023525640000000000000000000000000000000000000000000000000000C              Gastaldi                      ???              210000000000              1050156320003N
20200311C310117B000005660000000530876000000011148400000006423600000000000000000000000000000000000000000000000000000C30688007611   Ministerio de Produccion      ???30688007611   210000000000              1050182940002N
20200311C310117B000005670000000722198000000015166200000008835350000000009675000000000000000000000000000000000000000C              Perez Estevan                 ???              210000000000              1050195460001N
20200311C310117B000005680000000111074000000002332600000001545600000000020160000000000000000000000000000000000000000Cpa0516424     Cardoze Batista               ???pa0516424     210000000000              1050177760001N
20200311C310117B000005690000000030744000000000645600000000427800000000005580000000000000000000000000000000000000000Cpa0513619     Castillo                      ???pa0513619     210000000000              1050199260001N
20200311C310117B000005700000001537586000000032289300000019479290000000029400000000000000000000000000000000000000000C              Gastaldi                      ???              210000000000              1050156320001N
20200311C310118T000002380000001816634000000038149300000018166340000000000000000000000000000000000000000000000000000I51600002124   Expedia/Hotels.Com            ???51600002124   210000000000              1050196240002N
20200311C310118T000002390000002426490000000050956200000024264900000000000000000000000000000000000000000000000000000I547229530     Willis                        ???547229530     210000000000              1050196150002N
20200311C310118T000002400000002183842000000045860600000021838420000000000000000000000000000000000000000000000000000I546257336     Watling                       ???546257336     210000000000              1050157160002N
20200311C310118T000002410000002079352000000043666400000020793520000000000000000000000000000000000000000000000000000I519300182     Dexter                        ???519300182     210000000000              1050156240002N
20200311C310118T000002420000002079352000000043666400000021180520000000000000000000000000000000000000000000000000000I518115596     Bleek                         ???518115596     210000000000              1050156000001N
20200311C310118T000002430000002850900000000059869000000028896000000000000000000000000000000000000000000000000000000I384589872     Radulov                       ???384589872     210000000000              1050199320001N
20200311C310118T000002440000001354500000000028444600000013545000000000000000000000000000000000000000000000000000000I33708109369   TIP GROUP TRAVEL              ???33708109369   210000000000              1050183680002N
20200311C310118T000002450000002031750000000042666900000020317500000000000000000000000000000000000000000000000000000I33708109369   TIP GROUP TRAVEL              ???33708109369   210000000000              1050183660002N
20200311C310118T000002460000001354500000000028444600000013545000000000000000000000000000000000000000000000000000000I33708109369   TIP GROUP TRAVEL              ???33708109369   210000000000              1050183680002N
20200311C310118T000002470000001741500000000036571600000017415000000000000000000000000000000000000000000000000000000I              Velez                         ???              210000000000              1050190710002N
20200311C310118T000002480000003499125000000073481800000034991250000000000000000000000000000000000000000000000000000I              Nieves Rodriguez              ???              210000000000              1050164490002N
20200311C310118T000002490000002561198000000053785300000025611980000000000000000000000000000000000000000000000000000I51600002124   Expedia/Hotels.Com            ???51600002124   210000000000              1050195080002N
20200311C310118T000002500000002561197000000053785200000025611970000000000000000000000000000000000000000000000000000I51600002124   Expedia/Hotels.Com            ???51600002124   210000000000              1050195070002N
20200311C310118T000002510000002154300000000045240400000021543000000000000000000000000000000000000000000000000000000I491180822     Feibush                       ???491180822     210000000000              1050156250002N
20200311C310118T000002520000001354500000000028444600000013545000000000000000000000000000000000000000000000000000000I30714625167   MY BEDS                       ???30714625167   210000000000              1050189360002N
